:020000040001F9
:10800000502C0020B52F02008B9501005BA20100CF
:10801000B7AE01005FAF0100B3D101000000000066
:10802000000000000000000000000000DBD501009F
:10803000BFE00100000000004FE10100CF05020099
:108040005D2502009F1302001B2A0200C9DF010008
:10805000D313020000000000FFA50100DF2302008F
:108060006F280200772E0200832E020021310200C9
:10807000233102002531020027310200293102009C
:108080002B31020003CE01002D3102002F310200FE
:108090002FCE010031310200E5B40100333102007E
:1080A00035310200373102000000000000000000FE
:1080B000393102003B3102000000000000000000E6
:1080C00000000000000000000000000000000000B0
:1080D00000000000000000000000000000000000A0
:1080E0000000000000000000000000000000000090
:1080F0000000000000000000000000000000000080
:10810000000000000000000000000000000000006F
:10811000000000000000000000000000000000005F
:10812000000000000000000000000000000000004F
:10813000000000000000000000000000000000003F
:10814000000000000000000000000000000000002F
:10815000000000000000000000000000000000001F
:10816000000000000000000000000000000000000F
:1081700000000000000000000000000000000000FF
:1081800000000000000000000000000000000000EF
:1081900000000000000000000000000000000000DF
:1081A00000000000000000000000000000000000CF
:1081B00000000000000000000000000000000000BF
:1081C00000000000000000000000000000000000AF
:1081D000000000000000000000000000000000009F
:1081E000000000000000000000000000000000008F
:1081F000000000000000000000000000000000007F
:1082000010F0030F01D1012000E00020C0B2704740
:1082100010B4020052E8000F00EB010342E8003402
:1082200094F0000FF6D110BC7047000010B40200AB
:1082300052E8003F03EB010042E8000494F0000F15
:10824000F6D110BC7047000010B4020052E8003FA5
:10825000A3EB010042E8000494F0000FF6D110BC3B
:10826000704738B504000025042D0DD2DFF8E8086A
:1082700050F82500002805D02000DFF8DC1851F860
:10828000251088476D1CEFE731BD0278012A09D01F
:108290003BD3032A14D008D3052A2AD020D3062A98
:1082A00030D032E000220A702FE001220A700289E9
:1082B0008A818288CA81C2688A6000220A7424E0A6
:1082C00002220A7002898A818288CA81C2688A6011
:1082D000827D062A01D1012200E000220A7414E006
:1082E00003220A70C2888A810289CA81C2688A60B0
:1082F0000BE004220A70C2888A810022CA8100220F
:108300008A6002E005220A70FFE77047884205D2C2
:10831000006810F1010F01D0012000E00020C0B280
:108320007047418800EB81000C30704738B504007D
:108330000D002000FFF7F5FF854201D202200AE080
:10834000A0884FF6FF71884202D02088002801D112
:10835000012000E0002032BD10B50400002C10D038
:10836000DFF83809C06884420BD3DFF830090069B0
:10837000A04206D32000FFF743FF002801D00120D0
:1083800000E00020C0B210BD10B4DFF814390400C2
:10839000A4B21422544303EB040212895118DFF8EB
:1083A00000390400A4B21422544303EB040252899E
:1083B000511889B2B1F5806F01DA012000E0002088
:1083C000C0B210BC704770B403000A200024220021
:1083D00092B2022A1DDADFF8C8582600B6B214227B
:1083E000564305EB060252688A4210D2DFF8B058B5
:1083F0002600B6B21422564305EB0602526812F567
:108400008052914203D2002210001C8001E0641CC3
:10841000DDE770BC70470389CA1CD3180381428909
:10842000521AD21E4281704780B500200090082366
:10843000DFF84029DFF840090168DFF8600800F044
:1084400027FF02BD1CB50400002000900823DFF8C0
:108450002C292100DFF8440800F01AFF16BD2DE991
:10846000F04105000E000024EF1C380080B240F2FD
:10847000FE31884201DB092037E05FF0000840460A
:1084800080B202282BDADFF81818424692B2142084
:108490004243885C00281FD1390089B2404680B22F
:1084A000FFF772FF002817D001200400A6F8008013
:1084B000DFF8EC17424692B21420424301EB02006F
:1084C00041897918DFF8D82743469BB214204343EB
:1084D00002EB0300418102E018F10108CFE7E4B2AA
:1084E000002C01D0002000E00720BDE8F08130B46E
:1084F000DFF8AC370C00A4B21422544303EB04029F
:1085000053891B1ADB1EDFF898470D00ADB2142209
:10851000554304EB0502538130BC704780B50121FF
:10852000DFF84C08FFF782FE02BD2DE9F04106009E
:108530000D00DFF86C17320092B21420424301EBB9
:108540000200406810F580572C68002C04D02000F1
:10855000FFF7E7FE80460AE0DFF84417320092B2E8
:108560001420424301EB0200406810F10808390072
:108570004046FFF7CBFE002814D039004046FFF7F5
:10858000D5FE002803D002280AD004D3EFE7C5F8AF
:108590000080012007E04046FFF7C3FE8046E6E783
:1085A000002000E00020BDE8F08138B504000D0097
:1085B0006068FFF7D1FE002815D02089DFF8541934
:1085C000098988420FD120686168896888420AD188
:1085D00061682800FFF7F7FE002801D1012000E0C4
:1085E0000020C0B21EE0002028802888022818DA67
:1085F0000020009069462888FFF797FF00280CD0DC
:108600000099886822689042F4D100986060DFF891
:10861000040900892081012004E02888401C28806A
:10862000E3E7002032BDF8B504000D0016001F007E
:10863000DFF8E4080078002801D1022034E0002EA1
:1086400001D0002F01D105202EE0B88802282ADAB7
:10865000DFF84C16BA8814204243885C00281ED1EB
:108660003900B888FFF761FF002816D03968002C60
:1086700003D0888822889042F2D1002D03D0088848
:108680002A889042ECD18868306038687060DFF8E2
:10869000840800893081002006E000203860B88816
:1086A000401CB880D1E70A20F2BDF8B504002100D3
:1086B000DFF87C09006800F0FBFE05001C2600279F
:1086C0003A003100280000F02DFF2800F2BD10B55F
:1086D00004002100DFF85809006800F0F8FE10BD22
:1086E00010B504002100DFF84809006800F0FDFE25
:1086F00010BD10B504002100DFF83409006800F057
:1087000003FF10BD80B50121DFF82809FFF79CFDAC
:10871000002801D0012000E00020C0B202BD38B521
:1087200004000D000220A075002000900423221DEB
:108730002900DFF8680500F0ABFD002801D100201A
:1087400000E00E2032BD38B504000D00206900287D
:1087500001D0032000E00120A07500200090042338
:1087600014F10C0215F10801DFF8300500F090FD5E
:10877000002801D1002000E00E2032BD38B50400F1
:108780000D002078032801D1052000E00620A07507
:1087900000200090042314F10802291DDFF8FC04D6
:1087A00000F076FD002801D1002000E00E2032BD4F
:1087B0007CB504000D00002000900423DFF8B429EC
:1087C0002100DFF8D80400F063FD0100002901D08A
:1087D0000E200AE00122DFF844372E00B6B2142042
:1087E000464303EB06000274002076BD38B584B022
:1087F000040001A800210022002380E80E00E068A8
:108800000190694601A8FFF7D0FE00280AD0029D1A
:10881000A888E08028882081BDF800100298FFF722
:10882000C7FF00E00A2005B030BD2DE9FF4105007B
:10883000DFF8E0396A460021A81DFFF7F4FE0400C6
:10884000002C07D1DFF8CC0981880198FFF7B0FF31
:10885000040008E008260027DFF8B8893A00310054
:10886000404600F05FFE200004B0BDE8F08138B55E
:1088700004000D000120A07500200090E088830016
:10888000226915F10C01DFF8140400F001FD002845
:1088900001D1002000E00E2032BDDFF8780600890B
:1088A000401CDFF8701608810020DFF86816488049
:1088B0000020DFF8601608730021080080B202284B
:1088C00013DADFF858260B009BB214204343D05C28
:1088D000002801D1012000E00020DFF838260B003D
:1088E0009BB21A449072491CE7E7704730B402000B
:1088F00000210023180080B202282ADADFF81406CB
:108900001C00A4B22044807A002820D00020DFF888
:1089100004461D00ADB22C44A072DFF800461D00D5
:10892000ADB21420454304EB0500C06800280ED109
:10893000DFF8E8451D00ADB21420454304EB050007
:10894000007C012803D113800120010001E05B1CA1
:10895000D0E70800C0B230BC704780B50520DFF812
:10896000B41508700220DFF810148880002301225B
:10897000DFF804040168DFF8000800F0C8FC02BD5D
:1089800038B5DFF890054488C549220092B214201A
:10899000424301EB0200C068002812D10420DFF836
:1089A0007415087000230122BD492500ADB21420C2
:1089B000454301EB05004168DFF8BC0700F0A7FC68
:1089C00001E0FFF7CAFF32BD7CB5DFF84805446817
:1089D000DFF8A4030068DFF8A013898800EB8105A5
:1089E0006688F61C0320DFF82C1508700020009024
:1089F000300080B28300DFF81C0542682900A748D8
:108A000000F046FC76BD80B5DFF86418DFF8080892
:108A10004088FFF78AFD002802D0FFF7D5FF01E06C
:108A2000FFF7AEFF02BD80B50620DFF8E81408703E
:108A30009B49DFF8E00442881420424301EB020026
:108A40004068FFF7FFFC02BD80B50720DFF8C414C3
:108A500008700020DFF8BC144860FFF7E5FC02BD99
:108A600080B5DFF81008FFF741FF00280ED1002085
:108A7000DFF8A01408700020DFF898144880002068
:108A8000DFF89014486041F61D5001E0FFF7BBFF8E
:108A900002BDDFF8800440684188C91CB64A92884C
:108AA0008A18B54B9A80704710B4B34801687C4A65
:108AB000DFF8600443881420434302EB030040685E
:108AC000AD4A1060764ADFF84C04438814204343D3
:108AD00002EB03004160A8488288714BDFF8340440
:108AE00044881420444303EB040002810220A24A7C
:108AF000908010BC704780B5DFF81804007800281B
:108B00000AD003280FD0042814D0052819D006282D
:108B100017D007281AD01EE0FFF7BFFE0120DFF8AC
:108B2000F413087017E0FFF7B4FF0220DFF8E41336
:108B3000087010E0FFF7B8FF0620DFF8D8130870C0
:108B400009E00720DFF8CC13087004E00120DFF80B
:108B5000C4130870FFE701BDAC2200202DE9F041ED
:108B600004000E000F25002C05D00020DFF80817A8
:108B7000486001208FE03079002805D0022840D0DD
:108B800008D303284BD07DE001203071FFF74CFC67
:108B9000050077E000275FF00008404680B2022819
:108BA0001FDA3F49424692B214204243885C0228B1
:108BB00014D100213A4A43469BB214204343D15476
:108BC000012007003649424692B21420424301EB8D
:108BD00002004068FFF736FC050002E018F10108CA
:108BE000DBE73800C0B200280AD10120DFF8881680
:108BF00008700020DFF88016486041F61D504AE0FA
:108C000040E00020307102205B498880002301226F
:108C100059480168214800F07AFB050032E0002045
:108C2000307155480068FFF70DFC0500B9484188D0
:108C3000514802681A4B0F00BFB21420474303EBA0
:108C4000070040684C4B1860154B0F00BFB2142052
:108C5000474303EB0700426047488388104F8C4628
:108C60001FFA8CFC142000FB0CFC07EB0C000381AA
:108C70000220414B98800023094F89B214204143C0
:108C80007B54FFE7002D05D00020DFF8EC1548608D
:108C90000E2000E00020BDE8F0810000981B0020BD
:108CA000102100202DE9F04104000E009B49B28AFA
:108CB0001420424301EB0207002C05D0F188380054
:108CC000FFF7A9FB012051E07868398900EB8108A2
:108CD000B07D00281BD002281FD02AD3042804D03E
:108CE00021D3062837D02AD338E00020DFF88C15AE
:108CF0004860B069DFF884150860DFF88415DFF894
:108D00007C05FFF752FC002801D10A202EE04146E5
:108D10003000FFF704FD050021E041463000FFF779
:108D200012FD05001BE041463000FFF7A0FD0500E5
:108D300015E041463000FFF721FD05000FE0062059
:108D4000B075DFF83C050188DFF830054068FFF7B3
:108D50002FFD050003E041F61D5500E00F25002D15
:108D600003D0F1883800FFF756FB2800BDE8F081FA
:108D7000D4230020543002006C2300205C30020019
:108D800038B504000D00002C01D0012019E028792D
:108D9000002803D0022810D006D311E00220287149
:108DA0002800FFF723FD0CE02800FFF73EFD0A280E
:108DB00002D141F61D51080003E041F61D5000E0CC
:108DC0000F2032BD10B50400002C01D001202BE093
:108DD0005048007B002803D000204E49087301E072
:108DE000FFF789FE4B48007801280AD002280BD0F3
:108DF00003280CD004280DD006280ED007280FD049
:108E000011E0FFF72DFE0FE0FFF7FDFD0CE0FFF78F
:108E1000DBFD09E0FFF7B4FD06E0FFF704FE03E029
:108E2000FFF712FE00E00F2010BDF0B585B0040082
:108E3000DFF850040068002806D1DFF84C04FFF783
:108E40004FFCDFF840140860DFF838040068007851
:108E5000012809D025D303280ED00DD3052813D01F
:108E600012D3062818D01CE0DFF81804016820008F
:108E7000FFF774FE040016E0DFF808040168200024
:108E8000FFF710FF04000EE0DFF8F8030168200090
:108E9000FFF776FF040006E02000FFF793FF0400D1
:108EA00001E00F200400002C26D0142500266F4678
:108EB00032002900380000F035FB41F61D50844295
:108EC00004D1002001900020040000E001946946D4
:108ED000DFF8B0030068FFF7D8F96846FFF7C1F97B
:108EE0000020DFF8A0130860DFF89C03FFF701FC07
:108EF000FFF708FC00289BD105B0F0BD80B501212B
:108F00004C48FFF785F9002802D10020FFF78DFFBC
:108F100001BD0000CC22002064230020102100208D
:108F200010B504006068FFF780FF10BD2DE9FE4F0B
:108F300004000D00160099465FF0000A5FF000087B
:108F4000DFF834030078002801D102206DE0002D05
:108F500001D1052069E028884FF6FF71884202D0D0
:108F60006888002801D104205FE06868FFF748F9AD
:108F7000002801D1032058E0002E0BD1D5F808B00D
:108F80006946584680B2FFF76AFA0700002F06D0FC
:108F900038004AE03088ADF80000B6F802B001A809
:108FA000FFF783FB8046B8F1000F07D1BDF8001032
:108FB000584680B2FFF79BFA082036E088F8009008
:108FC000002088F81600BDF80000A8F814006868B2
:108FD000C8F81000FFF7A2FAC8F80C002888A8F813
:108FE00008006888A8F80400A8F806B04846C0B28F
:108FF000032805D1042088F816002068C8F8180056
:10900000A8F80AA001A8FFF762FB002C0AD00020F4
:109010006060D8F80C0020600020A072DFF8F80132
:1090200000892081FFF76AFF0020BDE8FE8F000065
:10903000F4300200D02300207CB504000D00002C89
:1090400001D0002D01D105201BE069462000FFF76B
:10905000ACFA002814D066680121DFF83022BDF890
:1090600000301420434302EB03000C30FFF7DEF81E
:109070002E6060680C3068600120A072002000E063
:109080000A2076BD1CB50400002C01D105202DE07E
:1090900069462000FFF789FA002826D0DFF8EC1196
:1090A000BDF800201420424301EB0200C0680028F4
:1090B00019D0A07A002816D0DFF8D011BDF8002012
:1090C0001420424301EB0200C168491EDFF8BC21B5
:1090D000BDF800301420434302EB0300C1600020C0
:1090E000A072002002E0062000E00A2016BD38B57C
:1090F00004000D0060480078002801D102200EE035
:10910000002C01D105200AE06946280080B2FFF753
:10911000A6F9002803D1BDF800102180658032BD7A
:1091200038B5040054480078002801D102201EE020
:10913000002C01D105201AE02088032801DB04203F
:1091400015E0524922881420424301EB0205688948
:109150006188C91C884209DB21886088FFF7C7F94C
:109160000020208000206080002000E0042032BD2C
:1091700000000000F8300200981B002038B5040001
:109180000D000223002229002000FFF7CFFE32BD90
:1091900070B505000E001400002C01D1052005E07B
:1091A0000223220031002800FFF7C0FE70BD38B551
:1091B00004000D00002C01D1052005E0032300224E
:1091C00029002000FFF7B2FE32BD38B505002A485D
:1091D0000078002801D102201AE0280080B24FF662
:1091E000FF71884201D1042012E06846FFF75DFA62
:1091F0000400002C01D108200AE005202070012085
:109200002071E5806846FFF762FAFFF777FE0020DD
:1092100032BD000074230020CC22002033B581B081
:1092200014001D002B00220002A901A8FFF7FBF982
:109230003EBD31B50C0015002B0022006946002010
:10924000FFF7F1F932BD31B50C0015002B002200FB
:1092500000216846FFF7E7F932BD0200002A01D07D
:10926000002901D1052002E0106808600020704745
:10927000D0220020CE2200206423002028230020BA
:1092800012240020D8230020DC23002010210020FD
:109290002DE9FC4104000F0015001E00DDF82080C0
:1092A000002C01D0002D01D10E202EE020680028D6
:1092B00001D1082029E0002E07D060684068B6FB85
:1092C000F0F100FB1160002801D009201DE03800FA
:1092D00000F089F800280BD0280000F084F800285E
:1092E00006D032003900200000F070F8002801D1CB
:1092F00010200AE0CDF8008033002A003900200059
:10930000D4F800C0DCF80CC0E047BDE8F681F8B541
:1093100004000E0015001F00002C01D10E2022E0D9
:109320002068002801D108201DE0002D01D109206E
:1093300019E060680068401E064209D16068026852
:1093400002FB05F23100200000F040F8002801D1B6
:10935000102008E03B002A0031002000D4F800C0B3
:10936000DCF810C0E047F2BD38B50400002C02D094
:10937000206800281DD1002511491248091A14201F
:10938000B1FBF0F0854212D20F48142101FB05F128
:10939000084404002068002807D020002168C9691B
:1093A0008847002801D0012007E06D1CE4E7002079
:1093B00003E020002168C969884732BD0000000031
:1093C000AC1B0020981B0020981B0020C36899420A
:1093D00006D300695118491E884201D3012000E0DC
:1093E0000020C0B2704710F0030F01D1012000E04F
:1093F0000020C0B2704706113CB4020052E8015F81
:10940000ABB2D48923449489A34228BF1B1B14897F
:10941000A34202BFBFF32F8F002007E0C3EA05037A
:1094200042E80134002CE9D14FF0010001958DF89C
:109430000000019808609DF8000036BC70470000ED
:1094400050E8012FC2EA024240E801210029F7D189
:10945000704700003CB4020052E8025F1FFAA5F317
:10946000D488A34202BFBFF32F8F00200DE0D48920
:1094700023449489A34228BF1B1BC5EA034342E847
:109480000234002CE8D14FF0010001958DF8000066
:10949000019808609DF8000036BC704750E8022F24
:1094A000C2EA224240E802210029F7D170470000B9
:1094B00038B504000D0029002000FFF79DFF0028AB
:1094C00003D020682988084400E0002032BD38B568
:1094D00004000D0028886988884204D12000FFF725
:1094E000AFFF012000E0002032BD38B504000D00C0
:1094F00029002000FFF7AEFF002803D0206869880C
:10950000084400E0002032BD38B504000D00288872
:109510006988884204D12000FFF7C0FF012000E0E5
:10952000002032BD62F30F2262F31F42401810F098
:10953000030308D0C91A1FD3DB0748BF00F8012D69
:1095400028BF20F8022D130030B4144615461039F8
:1095500028BF20E93C00FAD8490728BF20E90C00C1
:1095600048BF40F8042D890028BF20F8022D48BFCD
:1095700000F8012D30BC7047C91818BF00F8012D44
:10958000CB0728BF00F8012D7047FEE70120DFF868
:10959000141C0860BFF34F8F20BFFDE738B50120D2
:1095A0008DF800009DF8000010F00F0050F0100042
:1095B0008DF800000722DFF8F01B68467CDF05000D
:1095C0002C00002C05D0DFF8E42BB221200000F0A5
:1095D00023FE31BD80B500F037F8DFF8D40B0078FA
:1095E000002801D000F0A8FD00F091FCFFF7D6FFA5
:1095F000DFF8C00B00F020FE00F0E9FCDFF8B40B50
:1096000000F01AFE00F0AEFE00F091F800F0EDF868
:10961000DFF8A40B0068401CDFF89C1B0860DFF833
:10962000980B00684FF6FF71884203D30020DFF8E3
:10963000881B086000F0DFFF44F2885000F04CFE09
:10964000012000F03BFDDFE72DE9F0410025280077
:1096500080B2152823DA00200400200080B20328FD
:109660001BDADFF8581B2A0092B20620424301EBB6
:109670000200210089B2002220F81120DFF8401BEF
:109680002A0092B20620424301EB0200210089B277
:10969000002220F81120641CDFE76D1CD7E70020B2
:1096A000DFF8201B08800020DFF8181B488000200E
:1096B000DFF8141B088018260027DFF8108B3A000B
:1096C00031004046FFF72EFF0020DFF8041B087032
:1096D0000020DFF8001B08700020DFF8FC1A08707B
:1096E0000020DFF8D41A08600020DFF8F01A0880A4
:1096F00000F0D8FC00F0B2FDDFF8E40A00F09CFDB9
:1097000000F0B2FC012000F029FF4EF6503000F0CE
:1097100093FD00F095FFDFF8C80A00F08DFD0020F2
:1097200000F01CFF00F0E9FE0120BDE8F0812DE90A
:10973000F04101240025002600275FF000080120E9
:1097400000F00CFF4EF6503000F076FD00F07EFF8A
:10975000DFF8900A00F070FD00F034FFDFF8880AAF
:1097600000F06AFD4FF47A7000F0B6FD2000C0B240
:1097700000F0A4FC322000F0AFFD3800C0B2002899
:109780002CD1280080B2002802D0012807D015E093
:1097900000F0B4FC002006000120050019E00220C2
:1097A00000F05CFF300080B200F016FA761C30004A
:1097B00080B2142801DB022005000AE000F055FA0F
:1097C000002804D0002000F0C9FE00200400012081
:1097D00007002000C0B200F071FCCEE7002000F0CE
:1097E000BDFE4046C0B2BDE8F081F8B500240025BA
:1097F000002700F0FDFE002804D0012000F09CFEB0
:1098000000200700002600F0E2FB322000F064FD9B
:109810000A2000F07EFD4FF4967000F090FD2100CC
:1098200089B2300080B200F02BF8641C00F057FCC5
:1098300000F07EFD002821D100F08DFD002811D020
:109840004FF4967000F07BFD210089B2300080B2A9
:1098500000F016F8641C200080B2082802DB00200B
:109860000400761C012000F029FC7F1C380080B227
:109870003D28DDDB002000F05FFED9E774DFF1BD9D
:1098800070B504000D00280080B2002805D120002A
:1098900080B200F068F8060006E0290089B22000D6
:1098A00080B200F028F90600310089B2280080B2A9
:1098B00000F001F870BD2DE9F04792B005000E00F0
:1098C00006275920ADF80000DFF8000902903000AB
:1098D000ADF804003C245FF000080DF10C0942468D
:1098E00021004846FFF71EFE280080B2002803D161
:1098F00002208DF80C0002E000208DF80C008DF89D
:109900000F7068460C90002103A801F087FA80468A
:109910004446002C06D0DFF8942840F2B91120000C
:1099200000F07AFC10245FF00009DFF8C0A84A4676
:1099300021005046FFF7F6FD0320DFF8B01808704D
:109940000020DFF8A81848600020DFF8A01808728F
:10995000A020DFF8981848810020DFF8901888814F
:1099600012B0BDE8F0872DE9F14F8CB0DFF85C480C
:10997000DFF860080078ADF80000BDF80000DFF8FF
:109980005818097850EA4100ADF80000BDF8000011
:1099900050F00800ADF8000000F02AFEBDF80010FD
:1099A000C0B251EA8031ADF8001000F008FEBDF8F9
:1099B0000010C0B251EAC031ADF80010BDF800008F
:1099C000BDF83010090111F0F0010843ADF80000B6
:1099D000DFF81C0800F084F807208DF80300DFF89A
:1099E000100800788DF80200DFF8040840788DF840
:1099F0000400DFF8FC0780788DF80500DFF8F00739
:109A0000C0788DF80600DFF8E80700798DF80700C8
:109A1000DFF8DC0740798DF80800DFF8D40780799B
:109A20008DF80900DFF8C807C0798DF80A00182002
:109A30000B9000200A900A9A0B992000FFF772FD04
:109A40000220099068460890099A0899200001F0C0
:109A500033FAA41C04200790DFF868070690079AE1
:109A60000699200001F028FA241D02200590DFF855
:109A700058070490059A0499200001F01DFAA51CCE
:109A800002200390DFF83047039A2100280001F0FC
:109A900013FAAF1C01250DF103062A00310038002E
:109AA00001F00AFA17F1010901270DF102083A0045
:109AB0004146484601F000FA19F1010B5FF0070931
:109AC0000DF1040A4A465146584601F0F5F91BF1DA
:109AD0000700DFF8F816401A80B20DB0BDE8F08F2D
:109AE00070B504000825DFF80C672A00310020005B
:109AF00001F0E2F970BD2DE9F14F84B00C00601E59
:109B0000C00250F00400ADF80000601E032110FBFD
:109B100001F0ADF80200200080B2072802DA162515
:109B2000032601E010250226BDF8000050F00800D1
:109B3000ADF8000000F05CFDBDF80010C0B251EAC5
:109B40008031ADF8001000F03AFDBDF80010C0B251
:109B500051EAC031ADF80010BDF80000BDF810109A
:109B6000090111F0F0010843ADF80000DFF85C8650
:109B7000022002906F46029A3900404601F09CF99B
:109B800018F10208B1461FFA89F9062000FB09F90D
:109B9000DFF82816BDF802200620424301EB020040
:109BA00001904A460199404601F086F9310089B298
:109BB0000620414308EB010B5FF00208DFF8F8A52F
:109BC00042465146584601F077F91BF10201280040
:109BD00080B205B0BDE8F08F10B50400DFF81816AC
:109BE000022000F054FD002822D0DFF80C06018886
:109BF000DFF8C82523009BB206204343D152DFF88B
:109C0000F8054188DFF8B42523009BB206204343C2
:109C100002EB03004180DFF8E0058188DFF89C2536
:109C200023009BB20620434302EB030081801BE02C
:109C30000021DFF8882523009BB206204343D15240
:109C40000021DFF8782523009BB20620434302EB76
:109C5000030041800021DFF8642523009BB2062029
:109C6000434302EB0300818010BD10B5002400F0D7
:109C7000BFF8002806D100F07CFB002804D00120AA
:109C8000040001E000F06EFB2000C0B210BD70B413
:109C900087B005AADFF86445D4E90056C2E900564A
:109CA00003AADFF85C45D4E90056C2E900566A46CB
:109CB00000240025002682E870000024220092B2D1
:109CC000142A5FDA002213001A0092B2032A57DA2C
:109CD0002500ADB20622554300EB05021D00ADB2D2
:109CE00032F9152005AD1E00B6B235F91650AA425C
:109CF0000EDA2500ADB20622554300EB05021D0029
:109D0000ADB232F8152005AD1E00B6B225F816200A
:109D100003AA1D00ADB232F915502600B6B20622D4
:109D2000564300EB06021E00B6B232F916209542E9
:109D30000EDA2500ADB20622554300EB05021D00E8
:109D4000ADB232F8152003AD1E00B6B225F81620CC
:109D50006A461D00ADB252F825502600B6B2062262
:109D6000564300EB06021E00B6B232F9162005FA81
:109D700082F26D461E00B6B245F826205B1CA3E7B2
:109D8000641C9BE700252A0092B2032A2DDA6A465A
:109D90002B009BB252F8233005AA2E00B6B232F93E
:109DA00016209B1A03AA2E00B6B232F916209B1A6F
:109DB0006A462E00B6B242F826306A462B009BB2A5
:109DC00052F82320122392FBF3F26B462E00B6B218
:109DD00043F826206A462B009BB252F823202B0022
:109DE0009BB221F813206D1CCDE707B070BC704703
:109DF000F8B584B0002502A800210022C0E90012B5
:109E0000684600210022C0E9001202A9DFF8B00371
:109E1000FFF73DFF6946DFF8A403FFF738FF002195
:109E2000080080B203282DDA68460A0092B230F9A1
:109E3000120002AA0B009BB232F9132090420CDAF6
:109E400002A80A0092B230F9122068460B009BB2B9
:109E500030F91300121A14000BE068460A0092B29F
:109E600030F9122002A80B009BB230F91300121A2D
:109E70001400200080B2A12802DB0120050001E0CF
:109E8000491CCDE70022100080B2142822DA0020FD
:109E90000100080080B203281ADADFF82433160024
:109EA000B6B20620464333440E00B6B2DFF80C7358
:109EB00094461FFA8CFC062000FB0CFC07EB0C0000
:109EC0000F00BFB230F8170023F81600491CE0E776
:109ED000521CD8E72800C0B205B0F0BD70B501F043
:109EE000A2F805002C00002C05D0B04A40F2BB219E
:109EF000200000F091F932DF06003400002C05D07C
:109F0000AA4A40F2BF21200000F086F970BD7CB55E
:109F100001F047FA05002C00002C05D0A34A4FF4AD
:109F20003371200000F078F900200090694601208C
:109F300001F0E8FA06003400002C05D09B4A40F2FC
:109F4000D221200000F068F9684601F050FB0500BE
:109F50002C00002C05D0954A40F2D621200000F0BC
:109F60005BF973BD70B505002800C0B2042806D0A7
:109F7000072815D00A2829D1FFF7B0FF26E01321C2
:109F8000A048008876DF0600082E08D03400002C98
:109F900005D0864A40F2E921200000F03DF915E0A5
:109FA000984800884FF6FF7188420ED1964801F01C
:109FB00042FD0600082E08D03400002C05D07B4A54
:109FC00040F2F121200000F027F9FFE770BD2DE9F4
:109FD000F04792B006255920ADF80000182600275A
:109FE0007A4C3A0031002000FFF79CFA7748029043
:109FF0001820ADF804005FF03C085FF0000903ACE6
:10A000004A4641462000FFF78DFA00208DF80C00EB
:10A010008DF80F5068460C90002103A800F0FEFE5A
:10A0200082465446002C05D0604A4FF4457120000A
:10A0300000F0F2F8102400266C4F320021003800A6
:10A04000FFF770FA032069490870002067494860EB
:10A05000002066490872A0206449488100206349B5
:10A06000888112B0BDE8F0877CB56849032001F013
:10A07000B7FF05002C00002C05D04C4A40F22B31D4
:10A08000200000F0C9F86946002001F01BF8060026
:10A090003400002C05D0454A40F22E31200000F05B
:10A0A000BBF873BD38B500252C00002C05D03F4A05
:10A0B00040F23631200000F0AFF831BD38B5040071
:10A0C0003EDF05002000C0B2012801D120BF05E01D
:10A0D000002000F043FAFFF759FAFEE731BD38B52A
:10A0E0000121424873DF05002C00002C05D02F4AC7
:10A0F00040F25931200000F08FF831BD80B50020CA
:10A1000000F0ACFA33490870C0B2002805D02D49E0
:10A11000002000F0BCFA2F490870012000F09EFAE0
:10A120002D490870C0B2002805D02749012000F051
:10A13000AEFA2949087001BD38B50124344800F051
:10A1400082F83449088047F6707000F07CF8314995
:10A1500008803048B0F90000002802D1204800F003
:10A160006BF801F0DBFF2000C0B2002803D0FFF73E
:10A17000DEFA0400F7E7FFF767FA194800F05CF829
:10A18000022000F06BFA050001F0C8FF2800C0B201
:10A19000002804D0022000F061FA0500F6E731BD86
:10A1A000000000000005004084300200E82C02009E
:10A1B0003E240020A0D60100E4230020381F002008
:10A1C000B81F0020E02300201A240020582200207D
:10A1D0003B2400203C2400203D2400201C2400209F
:10A1E000D04508009098040040AD0300EC22002008
:10A1F00084230020F0FF02008C2300208C3002001A
:10A2000094300200881B0020A81D0020659F0100DB
:10A210008080FFFF1E2400207FB504000D00160083
:10A220002800ADF80000019602946A46002144F22D
:10A23000010002F007FA7FBD0021814202DA00BF6F
:10A24000491CFAE770470100080000B280115FF076
:10A25000FF3210FB02F000B27047FEE7F8B50020B5
:10A260006149086000206149088000206049087049
:10A2700000206049087000205F49087002F0DBFD93
:10A2800006003400002C04D05C4A31212000FFF786
:10A29000C3FF0FF2ED052A000121594802F0F3FD3A
:10A2A00007003C00002C04D0544A34212000FFF762
:10A2B000B3FFF1BD70B505000022290050480068C9
:10A2C00002F000FE06003400002C04D04B4A41216D
:10A2D0002000FFF7A1FF70BDF8B505004FF4004066
:10A2E00000FB05F04FF47A71B0FBF1F645480560CC
:10A2F0004348006802F00EFE07003C00002C04D02A
:10A300003E4A51212000FFF787FF3000FFF7D2FFC0
:10A31000F1BD020092B24FF47A714A43394909689B
:10A32000B2FBF1F1314A11800021324A11707047BD
:10A330003048007800212F4A1170C0B270470100E8
:10A3400089B2304A1268B1FBF2F12F4A1160002144
:10A35000294A11707047284800780021264A117058
:10A36000C0B2704729482049086000202049087081
:10A3700070471F48007800211D4A1170C0B2704715
:10A380001A49098800290BD018490988491E174A1B
:10A39000118016490988002902D10121154A11703E
:10A3A0001949096800290BD017490968491E164A3E
:10A3B000116015490968002902D101210E4A117066
:10A3C0000949096801290DDB07490A680D4909682F
:10A3D000521A05490A6004490968012902DA012173
:10A3E000034A11707047000004240020222400203A
:10A3F0004A2400204B2400204C240020D82B0200AB
:10A400001C310200082400200C240020E85C060017
:10A4100001005FF0A04070472DE9F14181B00E00CE
:10A4200017009846089C099D01A8FFF7F1FF31002D
:10A43000C9B23A00D2B251EA42014246D2B251EA1E
:10A4400082012200D2B251EA02212A00D2B251EA9C
:10A450000241019A00EB8202C2F80017BDE8F381C5
:10A460003EB504000D0000200190002000902B005C
:10A47000DBB2002200212000FFF7CEFF37BD11B56F
:10A4800081B001A8FFF7C4FF0400012101988140B9
:10A49000200000F02CF813BD11B581B001A8FFF722
:10A4A000B7FF0400012101988140200000F022F84C
:10A4B00013BD38B505000C00002C03D12800FFF7B0
:10A4C000EBFF02E02800FFF7DAFF31BD11B581B0E4
:10A4D00001A8FFF79DFF0400200000F005F8019996
:10A4E000C84010F0010016BDD0F810057047C0F844
:10A4F00008157047C0F80C15704780B500204A4910
:10A50000087000204949087000204949087003215B
:10A510000E20FFF7A5FF00F001F801BD80B500F0A7
:10A520002DF84249087043490870C0B2002802D192
:10A5300001203D49087001BD10B504002000C0B2E3
:10A54000002804D001210720FFF7B3FF03E000211A
:10A550000720FFF7AEFF3848047010BD10B50400A7
:10A560002000C0B2002804D001210D20FFF7A1FF78
:10A5700003E000210D20FFF79CFF10BD38B5012539
:10A580000024200080B205280BDA0620FFF79EFF8A
:10A5900090F00100284005000A20FFF74DFE641CE2
:10A5A000EFE70620FFF792FF90F001002840C0B2CD
:10A5B000002801D0012000E00020C0B232BD1C48BC
:10A5C0000078704780B50E20FFF780FF90F0010FF4
:10A5D00003D001201649087002E0002014490870D9
:10A5E00013480078002802D000201149087001BDEE
:10A5F0000E480078704700200C490870704710B56D
:10A600000E48006800280CD000200C490860FFF7B5
:10A61000B5FF04002000C0B2002802D00120034989
:10A62000087010BD000000003524002033240020F5
:10A630003624002034240020372400207C61004090
:10A6400080B502F0EDFC01F05DFE01BD80B502F0C9
:10A65000E7FCC046C04601F086FE01BD38B50400E7
:10A6600001252000C0B2002803D0022804D006D360
:10A6700008E002F0F1FC07E001F040FF04E001F027
:10A68000F9FE01E0002005002800C0B232BD70B51F
:10A6900004000D0001262000C0B2002803D00228CB
:10A6A00005D008D30BE0280002F0C4FC08E0280025
:10A6B00001F0BCFE04E0280001F0CDFE00E0002027
:10A6C000C0B270BD02000A70100080B2000A48706B
:10A6D000022070472DE9FC4705000E0017003800E6
:10A6E00080B231880931884201D20C2033E06846BB
:10A6F0006DDF0400002C01D020002CE00820318800
:10A7000068543088401C30801B2031886854308861
:10A71000401C30805FF006080DF10109308805EB20
:10A72000000A42464946504600F0C6FB3088801D6C
:10A7300030809DF80000C0B24008C0B2002803D1AC
:10A7400000203188685402E0012031886854308844
:10A75000401C30800020BDE8F687FCB404000D00EA
:10A760002078012804D16078002801D107205FE01B
:10A77000180080B21188891C88420BD320780128E8
:10A780000AD1180080B21188667816FA81F1891C06
:10A79000884201D20C204BE0190089B21088091AB6
:10A7A0008E1EADF80060694610882844801C7DDF4D
:10A7B0000100002901D008003AE02078022807D1E2
:10A7C0003000BDF8007080B2B84201D3092711E013
:10A7D0000827207801280BD1300094F801C080B2FE
:10A7E0001FFA8CFC604503D36078ADF8000001E0EF
:10A7F000ADF80060BDF80000FF2801D30C2017E081
:10A80000BDF80000401CB2F800C005F80C0010882C
:10A81000401C108010882F541088401C1080B2F803
:10A8200000C0BDF8000010EB0C0CA2F800C0002026
:10A83000F6BC7047F8B505000E001700380080B26E
:10A840003188091D884201D20C201EE0684679DF5C
:10A850000400002C01D0200017E003203188685448
:10A860003088401C30801920318868543088401C62
:10A870003080308805EB0001BDF80000FFF722FFB3
:10A88000318851FA80F030800020F2BD30B40400ED
:10A89000180080B21588ED1CA84201D20C2011E0EE
:10A8A0000220158848551088401C1080012015880A
:10A8B00048551088401C108010880C541088401C8B
:10A8C0001080002030BC704730B40400180080B203
:10A8D0001588ED1CA84201D20C2011E00220158839
:10A8E00048551088401C10800A201588485510884B
:10A8F000401C108010880C541088401C10800020D0
:10A9000030BC70472DE9FE4F06000F0094461C0036
:10A91000DDF830E00D9D5FF00008BEF800905FF0BC
:10A92000000A3088824550DA706850F82A10019188
:10A930000022694601A864DF0300002B01D0180043
:10A940005BE09DF800006146C9B288423AD14046BA
:10A95000C0B2002802D05FF0000B01E05FF0020BF4
:10A96000280080B2BEF800109DF8002012FA81F194
:10A9700051FA8BF1884201DA0C203EE04046C0B229
:10A9800000280ED1BEF80000401CAEF80000BEF852
:10A9900000002754BEF80000401CAEF80000012063
:10A9A0008046BEF8000004EB0002694601A864DF9F
:10A9B000002822D1BEF800109DF8002051FA82F143
:10A9C000AEF800101AF1010AABE74046C0B2002809
:10A9D00012D0BEF80010B1EB0901491EADF802100B
:10A9E000BDF80200B0F5807F01DB0C2005E0BDF86A
:10A9F0000200494689B260540020BDE8FE8F2DE96F
:10AA0000FC4706000F0090469946DDF828A00B9DF4
:10AA1000280080B20190CDF800A04B4602223900F8
:10AA2000C9B23000FFF76EFF0400002C01D02000F7
:10AA300011E0280080B20190CDF800A04B46102212
:10AA40004146C9B23000FFF75DFF0100002901D087
:10AA5000080000E00020BDE8F6870100088806280D
:10AA600009DB088840F68142904206DB08884FF6F1
:10AA7000FF72904201D007201FE04888062809DBBA
:10AA8000488840F68142904206DB48884FF6FF72C4
:10AA9000904201D0072010E008884FF6FF729042E4
:10AAA0000AD048884FF6FF72904205D048880A883D
:10AAB000904201D2072000E0002070472DE9F041CC
:10AAC00005000E0017009846404680B23988891D5F
:10AAD000884201D20C2028E02800FFF7BEFF0400C6
:10AAE000002C01D0200020E00520398870543888DF
:10AAF000401C38801220398870543888401C3880B7
:10AB0000388806EB00012888FFF7DCFD398851FA08
:10AB100080F03880388806EB00016888FFF7D2FDA6
:10AB2000398851FA80F038800020BDE8F0812DE9A5
:10AB3000F84F04000D0016001F00B4F8048018F14F
:10AB40000208380080B2318818FA81F1891C8842E5
:10AB500001D20C2034E0B8F1FF0F01D30C202FE01C
:10AB600018F10100318868543088401C3080FF2083
:10AB7000318868543088401C3080308805EB0001F3
:10AB80002088FFF79FFD318851FA80F03080A0883F
:10AB9000002814D0A068002801D1072010E0B4F8E4
:10ABA0000490D4F808A0308805EB000B4A465146C3
:10ABB000584600F081F93188A08841183180002082
:10ABC000BDE8F28F2DE9FE4F04000D001600A06ACB
:10ABD000002801D107204DE00027380094F82C1000
:10ABE000C0B2884245D2A16A3A00D2B20C20424398
:10ABF00001EB0208B8F8049019F10209B9F1FF0F4E
:10AC000001D30C2036E019F10100318868543088F6
:10AC1000401C30801620318868543088401C3080B9
:10AC2000308805EB0001B8F80000FFF74BFD3188D4
:10AC300051FA80F03080B8F80400002817D0D8F816
:10AC40000800002801D1072014E0B8F804000090A3
:10AC5000D8F808A0308805EB000B009A51465846FA
:10AC600000F02AF93188B8F80400411831807F1CBF
:10AC7000B3E70020BDE8FE8F2DE9FC4105000E0082
:10AC800017000024B7F800800020388095F82D00C8
:10AC900000280AD0424692B239003000FFF71AFD70
:10ACA0000400002C01D02000A6E0A87800280AD0DB
:10ACB000424692B239003000FFF7BCFD0400002C80
:10ACC00001D0200098E0E87800280DD043469BB2E0
:10ACD0003A00310095F9030040B2FFF7D7FD0400B8
:10ACE000002C01D0200087E0686800280DD0434682
:10ACF0009BB23A003100686890F90000FFF7E4FD6C
:10AD00000400002C01D0200076E0288900280FD014
:10AD1000404680B20190009733000622022115F1CF
:10AD20000800FFF76CFE0400002C01D0200063E057
:10AD3000288A00280FD0404680B201900097330047
:10AD40000722032115F11000FFF759FE0400002C23
:10AD500001D0200050E0288B00280FD0404680B260
:10AD60000190009733001522142115F11800FFF708
:10AD700046FE0400002C01D020003DE0286A002897
:10AD80000BD043469BB23A003100286AFFF796FE8B
:10AD90000400002C01D020002EE0686A00280BD0AF
:10ADA00043469BB23A003100686AFFF7C0FE0400D8
:10ADB000002C01D020001FE095F82C0000280BD0BB
:10ADC00043469BB23A0031002800FFF7FBFE040027
:10ADD000002C01D020000FE0287800280BD043463B
:10ADE0009BB23A0031002800FFF7B7FC0400002CAA
:10ADF00001D0200000E02000BDE8F6810100C87805
:10AE0000400701D4072000E0002070470100C87807
:10AE1000002801D0072000E0002070472DE9F8410C
:10AE200091B005000E001F20ADF802001F20ADF804
:10AE30000000002D15D02800FFF7E0FF0700002FCD
:10AE400001D0380034E00DF1020209A92800FFF713
:10AE500013FF0400002C01D0200029E00DF124088C
:10AE600004E05FF000080020ADF80200002E13D0CF
:10AE70003000FFF7CBFF0700002F01D0380017E0AC
:10AE80006A4601A93000FFF7F7FE0400002C01D04C
:10AE900020000DE001AA03E000220020ADF8000030
:10AEA000BDF80030DBB2BDF80210C9B2404672DF17
:10AEB00012B0BDE8F081FEE762B38B0708D0521EE6
:10AEC00011F8013B00F8013B00F024808B07F6D11C
:10AED000830740F0208000BF103A07D330B4B1E8B8
:10AEE0003810103AA0E83810F9D230BC530724BF0C
:10AEF000B1E80810A0E8081044BF51F8043B40F83E
:10AF0000043BD20724BF31F8022B20F8022B44BFA8
:10AF10000B7803707047121F17D35B0009D151F8EB
:10AF2000043B20F8023B1B0C121F20F8023BF6D218
:10AF30000BE051F8043B00F8013B1B0A20F8023BF0
:10AF40001B0C121F00F8013BF3D238BF121D521E1A
:10AF500024BF11F8013B00F8013BF8D87047FEE729
:10AF600038B501220021002001F07DF80500002DF8
:10AF700003D0072D01D0280018E00722022101206C
:10AF800001F071F80400002C03D0072C01D0200040
:10AF90000CE004220221002001F065F801000029E4
:10AFA00003D0072901D0080000E0002032BD38B5E9
:10AFB00001220221002001F056F80500002D03D0E7
:10AFC000072D01D0280018E007220221012001F0FE
:10AFD0004AF80400002C03D0072C01D020000CE01C
:10AFE0000A220021002001F03EF80100002903D0D0
:10AFF000072901D0080000E0002032BD10B5040090
:10B00000012000F064FD002802D00220207009E039
:10B01000002000F05CFD002802D00B20207001E031
:10B020000020207010BD10B5002001F06DF8040064
:10B03000002C03D0062C01D020000AE0012001F0F2
:10B0400063F80100002903D0062901D0080000E0C0
:10B05000002010BD70B505000E002888102802D011
:10B06000112817D02DE02148006800280CD1FFF7E7
:10B0700077FF0400002C07D01D480068002803D08B
:10B0800020001B490968884718480068401C174978
:10B09000086016E015480068401E1449086013480F
:10B0A000006800280CD1FFF782FF0400002C07D0B5
:10B0B0000F480068002803D020000D490968884720
:10B0C000FFE770BD70B505000C000026084805605C
:10B0D000002C02D02000FFF791FF044800680028F0
:10B0E00002D1FFF764FF0600300070BDCC230020C2
:10B0F000C8230020012210F01F018A40DFF8A813A6
:10B1000003005BB25B0941F823207047012210F075
:10B110001F018A40DFF8941303005BB25B0941F81A
:10B120002320704710B4020052B2002A0AD54A0107
:10B13000DFF87C33040064B214F00F04234403F8F6
:10B14000042C05E04A01DFF86C33040064B21A55A0
:10B1500010BC7047010049B2002909D5DFF850132F
:10B1600040B210F00F00084410F8040C400904E04D
:10B17000DFF8401340B2085C4009704780687047B0
:10B180000100080040B2202805DADFF82C03C8408F
:10B1900010F001000EE0080040B2402809DA01205A
:10B1A00020398840002801D0012000E00020C0B2F2
:10B1B00000E0012070470100082901D3002008E0C9
:10B1C000002903D0012901D0042901D1002000E089
:10B1D0000120704710B50400200040B2FFF7D0FFF7
:10B1E000002802D142F2010028E0200040B2FFF71F
:10B1F000B1FFFFF7E0FF002802D142F202001DE09C
:10B20000DFF8B8028068002813D0DFF8B002210010
:10B2100049B2490950F82110012214F01F00824060
:10B220001143DFF89802220052B2520940F822106E
:10B2300003E0200040B2FFF75DFF002010BD10B515
:10B240000400200040B2FFF79BFF002802D142F229
:10B2500001001AE099488068002811D09748210021
:10B2600049B2490950F82110012214F01F00824010
:10B2700091439248220052B2520940F8221003E052
:10B28000200040B2FFF742FF002010BD38B5040097
:10B290000D00200040B2FFF773FF002802D142F2F8
:10B2A00001000DE02800FFF786FF002802D142F2DE
:10B2B000020005E02900200040B2FFF733FF002024
:10B2C00032BD7FB504007E49684601F052FF6846F2
:10B2D000FFF754FF002810D06846FFF74FFF050026
:10B2E0002E6869682000C0B2B047002803D06846C5
:10B2F00001F049FFEBE7112000E0002004B070BD31
:10B300007FB504006F49684601F033FF6846FFF7D8
:10B3100035FF00280CD06846FFF730FF05002E6887
:10B3200069682000C0B2B047684601F02CFFEDE725
:10B330007FBD38B51620FFF74DFF05002C00002C0F
:10B3400004D0614A99212000FEF766FF31BD38B56F
:10B350001620FFF774FF05002C00002C04D05A4A79
:10B36000A5212000FEF758FF31BD70B5072116203A
:10B37000FFF78CFF05002C00002C04D0524AB821A6
:10B380002000FEF749FF07211520FFF77FFF060089
:10B390003400002C04D04C4ABA212000FEF73CFFB8
:10B3A00070BD1CB549480078002801D0082028E06D
:10B3B0000120474908700020FFF783FF112801D1C1
:10B3C00000201EE00020FFF79BFF4248006800902D
:10B3D0004149684610DF0400002C01D0200010E035
:10B3E00001203A49087000203949087000203B4983
:10B3F0000870FFF7BAFFFFF79CFF0120FFF780FFFF
:10B40000002016BD10B531480078002801D1082071
:10B410001EE001202E4908700120FFF752FF11287D
:10B4200001D1002014E00220FFF76AFF11DF0400C1
:10B43000002C01D020000BE00020244908700020DF
:10B4400023490870FFF783FF0320FFF759FF00200F
:10B4500010BD80B51E480078002801D1082008E002
:10B460001A480078002802D0FFF7CCFF01E0FFF770
:10B4700098FF02BD1548007870473EB518496846E8
:10B4800001F077FE6846FFF779FE00280AD068468B
:10B49000FFF774FE040025686068A847684601F05D
:10B4A00072FEEFE737BD000000E100E080E100E060
:10B4B00018ED00E000E400E0FC06FFBD1C230020C6
:10B4C0000C30020018300200702B02003F240020D4
:10B4D000412400200831020045C60100402400201C
:10B4E0002430020080B5FFF7C8FF01BD80687047B7
:10B4F0000100002901D10E2003E0594800680860CE
:10B50000002070472DE9FE4306000F003800FFF7CA
:10B51000EFFF0400002C01D0200066E05FF00C0873
:10B520005FF000096D464A4641462800FDF7FAFFE4
:10B530008DF8006001208DF802000320ADF80400B2
:10B540003A686946202069DF0500002D5FF00C088D
:10B550005FF000096C464A4641462000FDF7E2FFD5
:10B5600001208DF800003A686946402069DF040038
:10B57000002C5FF00C085FF000096D464A4641461A
:10B580002800FDF7CFFF00208DF800003A686946DB
:10B59000012069DF0500002D5FF00C085FF0000955
:10B5A0006C464A4641462000FDF7BCFF4FF4B060B0
:10B5B00000903A686946A12069DF0400002C0C2540
:10B5C0005FF00008E946424629004846FDF7AAFF19
:10B5D0009DF8000050F001008DF800003A686946BF
:10B5E000A02069DF010000290020BDE8FE830100E2
:10B5F0000A68080060DF0B689342002870472DE955
:10B60000F8418FB005002C20ADF80000694604A871
:10B6100061DF0400002C02D0052C17D11CE004AE21
:10B62000104901A801F0A5FD01A8FFF75FFF002860
:10B63000E9D001A8FFF75AFF0700D7F80080796822
:10B640003000C04701A801F09EFDEDE7064A40F238
:10B6500021112000FEF7E0FD10B0BDE8F0810000F0
:10B660000C31020030300200302A020090F8D6007F
:10B67000704701000022062A06D2885C002801D00B
:10B68000012002E0521CF6E700207047C0B2401CC7
:10B69000052190FBF1F201FB1200C0B27047CA7B9A
:10B6A000012A02D18A88A0F8C820704770B5050029
:10B6B0000E00002085F8D400B088B5F8C810884284
:10B6C00011D1287900280ED10121280000F0CAF8F4
:10B6D0000400002C07D0D5F8D000002803D02000AB
:10B6E000D5F8D010884770BD70B505000E00307ACF
:10B6F000002812D1E878FFF7C9FF0100C9B228007D
:10B7000000F0B0F80400002C07D0D5F8D0000028D5
:10B7100003D02000D5F8D010884770BD80B5002038
:10B72000FDF722FE02BD38B504000D0014F126001D
:10B73000FFF79FFF01002800C0B2012806D021D3E7
:10B74000032815D00BD3042817D01BE0A0790028BC
:10B7500005D00800C0B2002801D0012013E0E07934
:10B76000002805D00800C0B2002801D002200AE05D
:10B77000207A002801D0032005E0607A002801D05B
:10B78000042000E0002032BD02000120907012F180
:10B790002500486001200870002088810020488131
:10B7A0000020704702000220907012F125004860CE
:10B7B0000120087010698881D06848810020704796
:10B7C00070B505000E0068697081A869B08168795C
:10B7D00000281AD095F8D400002816D12800FFF7C9
:10B7E00045FF002811D002203072042085F8330074
:10B7F000002115F13000FFF711FB0400002C01D0EF
:10B80000200005E00520A87001E00320A8700020BA
:10B8100070BD70B505000E00E8697081286AB081BE
:10B82000687900281AD095F8D400002816D128008D
:10B83000FFF71CFF002811D002203072042085F889
:10B840003300002115F13000FFF7E8FA0400002C66
:10B8500001D0200005E00620A87001E00420A870B7
:10B86000002070BD2DE9F84384B005000E00287853
:10B87000002801D10820A1E0EE70FFF74FFF00285B
:10B8800003D001206870002098E007275FF00008CF
:10B8900015F12509424639004846FDF743FEA879CF
:10B8A000002802D0E87801280BD0E879002802D0DF
:10B8B000E878012805D0E879002811D0E878022836
:10B8C0000ED1D5F8CC00002807D0012085F82C0037
:10B8D0000820D5F8CC10884702E0002085F82C001D
:10B8E0003100C9B22800FFF71EFFE870D5F8CC0080
:10B8F000002817D0E878032802D0E878042811D16E
:10B90000687900280ED095F8D40000280AD10020CC
:10B9100085F8D600012085F8D5000720D5F8CC1091
:10B92000884702E0002085F8D50010275FF0000866
:10B93000E946424639004846FDF7F4FD00208DF8FF
:10B94000000000208DF80800E87800281ED00228AA
:10B950000AD003D3042813D00CD31AE06946280078
:10B96000FFF712FF040014E069462800FFF71AFFF2
:10B9700004000EE069462800FFF722FF040008E0FB
:10B9800069462800FFF745FF040002E00020A87088
:10B99000FFE7E878002808D095F82410684673DFA0
:10B9A0000400002C01D0200008E0D5F8CC000028CD
:10B9B00003D0A878D5F8CC108847002005B0BDE8A2
:10B9C000F08370B504000D002E002088102804D0EC
:10B9D000112807D01B280AD00EE021003000FFF705
:10B9E0005EFE09E021003000FFF760FE04E0210068
:10B9F0003000FFF779FEFFE770BDF8B505000E00D7
:10BA000037002800801E012814D87878002810D02C
:10BA100000207870F9783800FFF724FF0400002C2C
:10BA200007D0D7F8D000002803D02000D7F8D010D6
:10BA30008847FFE7F1BD70B5060074DF012086F886
:10BA4000D400002086F8D600062086F833000021B6
:10BA500016F13000FFF7E2F90500002D01D02800B3
:10BA60000FE0F1783000FFF7FDFE0400002C07D056
:10BA7000D6F8D000002803D02000D6F8D010884790
:10BA8000002070BD01005FF0A040704711B581B08B
:10BA90000C0001A8FFF7F6FF019900EB8101D1F836
:10BAA000001731F44031019A00EB8202C2F800170E
:10BAB000019900EB8101D1F800172200D2B251EABE
:10BAC0000241019A00EB8202C2F8001713BD10B5C3
:10BAD0000400200001F044FC10BD2DE9F8430500EE
:10BAE0000E0000275FF000092800C0B201F047FCFB
:10BAF0008046B8F1020F54D23000C0B200282DD0D9
:10BB0000022846D04DD2DFF8C405032101FB08F11D
:10BB1000405C0700DFF8B405032101FB08F108448D
:10BB2000407800280ED0DFF8A8254FF40041DFF858
:10BB3000A405006801F0C6F90400002C02D1DFF86A
:10BB400090050570DFF88405032101FB08F1084426
:10BB50008078DFF8841501F8080022E0DFF874052A
:10BB6000006801F0D7F9DFF8700510F80800DFF879
:10BB70005C15032202FB08F211448978884207D140
:10BB8000DFF84805032101FB08F10844807807002D
:10BB900007E0DFF83805032101FB08F1084440788D
:10BBA00007003800C0B200280AD0DFF8300500686E
:10BBB000002805D03800C0B2DFF820150968884792
:10BBC000BDE8F18310B5040002212078FFF785FF5E
:10BBD00010BD10B5DFF808050078002809D0002452
:10BBE000032C08D2022C02D02000C046C046641CA0
:10BBF000F6E701F08DFB10BDF8B506000024002526
:10BC0000DFF8E0040078002805D00020DFF8D41425
:10BC10000870FFF7DEFF3000C0B2002837D00228DE
:10BC20003BD03AD3042800F0A8806ED3062800F059
:10BC30001281C0F0DB80082800F02181C0F019815A
:10BC40000A2800F03A81C0F029810C2800F05381C5
:10BC5000C0F042810E2800F05381C0F051811028BD
:10BC600000F04E81C0F04C81122800F08181C0F0BC
:10BC70004781142800F08981C0F07F81162800F0E8
:10BC80009781C0F08A81172800F0928195E1FFF733
:10BC9000A0FFDFF8540406708FE1002001F021FBC3
:10BCA00000280CD00020C046C0463000C0B2022898
:10BCB00002D14FF4E1650DE04FF47A650AE000200F
:10BCC00001F01EFB3000C0B2022801D1C82501E0FE
:10BCD0004FF4C875DFF810040670002217004FF407
:10BCE0000040A0FB050110F5FA7051F100014FF47E
:10BCF0007A72002301F05AFB01003A00DFF8EC03EE
:10BD0000006801F0DFF8040057E1002001F0E9FAD3
:10BD100000280CD00020C046C0463000C0B2032826
:10BD200002D14FF448750DE04FF47A650AE0002027
:10BD300001F0E6FA3000C0B2032801D1C82501E0C5
:10BD40004FF4C875DFF8A0030670002217004FF407
:10BD50000040A0FB050110F5FA7051F100014FF40D
:10BD60007A72002301F022FB01003A00DFF87C0325
:10BD7000006801F0A7F804001FE1002001F0B1FA0B
:10BD800000280CD00020C046C0463000C0B20428B5
:10BD900002D14FF47A650EE04FF47A650BE0002093
:10BDA00001F0AEFA3000C0B2042802D14FF4C875D9
:10BDB00001E04FF4C875DFF8300306700022170069
:10BDC0004FF40040A0FB050110F5FA7051F100019D
:10BDD0004FF47A72002301F0E9FA01003A00DFF82B
:10BDE0000C03006801F06EF80400E6E0002001F0AA
:10BDF00078FA00280BD00020C046C0463000C0B200
:10BE0000052801D1C8250DE04FF47A650AE000202D
:10BE100001F076FA3000C0B2052801D1C82501E052
:10BE20004FF4C875B0480670002217004FF4004068
:10BE3000A0FB050110F5FA7051F100014FF47A7280
:10BE4000002301F0B3FA01003A00A848006801F0AD
:10BE500039F80400B1E0002001F06EFAA248067043
:10BE6000002240F6CD41A148006801F02BF8040003
:10BE7000A3E0002001F044FA9B4806709DE00120F9
:10BE800098490870012001F057FA002240F6CD4190
:10BE90009648006801F016F804008EE001209149F0
:10BEA0000870012001F048FA00224FF480418F48C9
:10BEB000006801F007F804007FE00120894908705C
:10BEC000012001F039FA002240F6CD418748006890
:10BED00000F0F8FF040070E00120824908700120A2
:10BEE00001F02AFA00224FF480418048006800F0F7
:10BEF000E9FF040061E001F015FA7B4806705CE0A0
:10BF00007B48006801F006F804003000C0B2D0F1B0
:10BF100011000500002D24D0002C22D1022D19D3B0
:10BF200000221700290089B2C82041434FF4004085
:10BF300080FB010110F5FA7051F100014FF47A72A3
:10BF4000002301F033FA01003A006948006800F06C
:10BF5000B9FF0400022001F0D3F901206049087004
:10BF600005E00220C046C04600205D49087024E07C
:10BF7000FFF72FFE5C4806701FE0FFF72AFE002047
:10BF800001F0BEF95848067017E0FFF722FE0120C5
:10BF900001F0B6F9544806700FE0FFF71AFE0020D2
:10BFA00001F0AEF9012001F0ABF94F48067004E052
:10BFB00001F0B8F94C480670FFE72000F2BD10B55B
:10BFC00004004C480078C00703D547480078FFF7C5
:10BFD00013FE10BD10B50400022001F0ADF910BD34
:10BFE000F8B505000E000024424805603B48066095
:10BFF000A80722D50027022F09D2002C07D1012241
:10C000000121380000F02FF804007F1CF3E7002C1A
:10C0100006D140F266620221374801F062FB04005B
:10C02000002C02D101F0A0FB0400002C05D1334A02
:10C030000021284800F027FF0400E80701D501F09F
:10C0400082F9002C05D12E4A0021284800F01BFF60
:10C050000400002C05D12B4A0121254800F013FFD4
:10C0600004002000F2BD30B403000020022B29D2CE
:10C070001400E4B2012C07D10C00E4B2012C02D16F
:10C0800013F10E0200E000220C00E4B2002C0FD0ED
:10C09000022C06D013D20D4C032505FB03F5625587
:10C0A00012E00A4C032505FB03F52C4462700BE0FB
:10C0B000064C032505FB03F52C44A27004E007247D
:10C0C000200001E00724200030BC70475C230020E2
:10C0D0002D240020F030020010240020C423002072
:10C0E0002C2400202B2400202A240020E8300200E9
:10C0F000EC300200C0230020442F0200C5BB010029
:10C10000BFBF0100D5BF010010B50400200001F041
:10C1100045F90321FFF7BAFC002010BD2DE9F841D5
:10C1200097B01925DFF8D804FEF786F80024DFF869
:10C13000D404844203DA00F0E1F9641CF7E700F06C
:10C14000DDF90020049000200590002006905FF0AB
:10C150000008B8F1050F22DA00F0D0F90498DFF8F2
:10C16000A814B1F900105FF0FF3211FB0200049037
:10C170000598DFF89414B1F902105FF0FF3211FB5B
:10C18000020005900698DFF88014B1F904105FF002
:10C19000FF3211FB0200069018F10108D9E704985C
:10C1A000052190FBF1F004900598052190FBF1F03A
:10C1B00005900698052190FBF1F0069023208DF85C
:10C1C0001C0085208DF81D0000200090022307AA86
:10C1D0002900C9B2DFF8200401F0E9FD06003400AF
:10C1E000002C05D0DFF814246E212000FEF714F88F
:10C1F000DFF80C04FEF720F800F080F90020019031
:10C2000000200290002003900027052F21DA00F083
:10C2100075F90198DFF8F013B1F900105FF0FF3203
:10C2200011FB020001900298DFF8DC13B1F9021053
:10C230005FF0FF3211FB020002900398DFF8C81391
:10C24000B1F904105FF0FF3211FB020003907F1C74
:10C25000DBE70198052190FBF1F0019002980521A0
:10C2600090FBF1F002900398052190FBF1F0039010
:10C2700001990498091ADFF894030160029905985E
:10C28000091ADFF88803416003990698091ADFF854
:10C290007C03816020208DF81C0000208DF81D009B
:10C2A00000200090022307AA2900C9B2DFF8480342
:10C2B00001F07DFD80464446002C05D0DFF83C238C
:10C2C00088212000FDF7A8FF23208DF81C00012005
:10C2D0008DF81D0000200090022307AA2900C9B292
:10C2E000C54801F064FD06003400002C04D0C34AA8
:10C2F0008E212000FDF790FFC148FDF79DFF18B08B
:10C30000BDE8F08138B584B06846C1491022FEF717
:10C31000E3FD0020BC4908800020BB494880002084
:10C32000B94988800020BB4908700020BA490870CC
:10C33000002300226946B04801F079FB05002C007B
:10C34000002C04D0AD4AAA212000FDF765FFAA48C1
:10C3500001F0C0FBC046C04600F005F8A848FDF754
:10C360006BFF05B030BDFEB5192521208DF8040006
:10C3700000208DF8050000200090022301AA29006A
:10C38000C9B29D4801F013FD06003400002C04D012
:10C390009A4ADD212000FDF73FFF22208DF804009E
:10C3A00000208DF8050000200090022301AA29003A
:10C3B000C9B2914801F0FBFC07003C00002C04D0FE
:10C3C0008E4AE3212000FDF727FF23208DF804008B
:10C3D00010208DF8050000200090022301AA2900FA
:10C3E000C9B2854801F0E3FC06003400002C04D0FB
:10C3F000824AE9212000FDF70FFF20208DF804007C
:10C4000037208DF8050000200090022301AA2900A2
:10C41000C9B2794801F0CBFC07003C00002C04D0E5
:10C42000764AEF212000FDF7F7FEF7BD01007948BD
:10C43000007800280DD07448008808807248408831
:10C4400048807148808888800020724A10700120DE
:10C4500000E00020704701006F480078002807D0F6
:10C460006E480088088000206B4A1070012000E0B0
:10C47000002070477FB502208DF808000F208DF84E
:10C480000A00D5208DF80B000020009002230DF14A
:10C490000A024021584801F08AFC06003400002CB2
:10C4A00005D0564A40F225112000FDF7B5FE00F0F8
:10C4B00060F80028FBD00220019003A8009001231F
:10C4C00002AA40214C4801F092FC05002C00002CEF
:10C4D00005D04A4A4FF495712000FDF79DFEBDF846
:10C4E0000C004E4908804D4801884FF6E07001402D
:10C4F0004A4801800120484908707FBD38B588B09E
:10C50000A8208DF8080000F055F80028FBD0062080
:10C51000019005A80090012302AA1921364801F0D4
:10C5200066FC05002C00002C05D0344A40F2411175
:10C530002000FDF771FEBDF9140000B2ADF80C004B
:10C54000BDF91600ADF80E00BDF91800ADF81000E9
:10C55000BDF80C002C490880BDF80E002A4948801F
:10C56000BDF810002849888001202A49087009B0C8
:10C5700030BD3EB504208DF809000120019002A8CD
:10C58000009001230DF1090240211B4801F02FFC0E
:10C5900005002C00002C05D0184A40F25B11200049
:10C5A000FDF73AFE9DF80800000601D5012000E0E5
:10C5B00000203EBD3EB527208DF8090001200190E6
:10C5C00002A8009001230DF1090219210A4801F087
:10C5D0000EFC05002C00002C05D0084A4FF4B87161
:10C5E0002000FDF719FE9DF80800000701D5012085
:10C5F00000E000203EBD000074300200902C0200DC
:10C60000D0450800A08601007C23002034230020B0
:10C61000542F020038240020392400201824002040
:10C62000BFF34F8F0548016811F4E06104480143EE
:10C6300002480160BFF34F8F00BFFDE70CED00E043
:10C640000400FA0570B504000D0016002000401E1D
:10C650000AD04FF48051401A07D04FF44051401A8D
:10C6600005D0401E02D003E002E001E000E0FFE759
:10C6700003480068C00700D500BEFFF7D1FF70BDBA
:10C68000F0ED00E0012210F01F018A40DFF8B4183D
:10C6900003005BB25B0941F823207047012210F0D0
:10C6A0001F018A40DFF8A01803005BB25B0941F864
:10C6B00023207047012210F01F018A40DFF88C18F8
:10C6C00003005BB25B0941F823207047012210F0A0
:10C6D0001F018A40DFF8781803005BB25B0941F85C
:10C6E0002320704710B4020052B2002A0AD54A0132
:10C6F000DFF86038040064B214F00F04234403F838
:10C70000042C05E04A01DFF85038040064B21A55E1
:10C7100010BC7047DFF8441800283ED0DFF84028EE
:10C72000126800BF00BF00BF00BF00BF00BF00BF56
:10C7300000BF8A422FD000BF00BF00BF00BF00BFB4
:10C7400000BF00BF00BF00BF00BF00BF00BF00BFF1
:10C7500000BF00BF00BF00BF00BF00BF00BF00BFE1
:10C7600000BF00BF00BF00BF00BF00BF00BF00BFD1
:10C7700000BF00BF00BF00BF00BF00BF00BF00BFC1
:10C7800000BF00BF00BF00BF00BF00BF00BF00BFB1
:10C7900000BF00BF00BF401EC3D1704710B50400EA
:10C7A000DFF8C007046007211120FFF79BFF10BDD1
:10C7B00080B55FF48030DFF8B01708605FF4803038
:10C7C000DFF8A81708601120FFF780FF1120FFF79E
:10C7D00059FF0120DFF8981708602F20FFF79AFF14
:10C7E0000120DFF89017087001BD80B51120FFF718
:10C7F00055FF5FF48030DFF8801708605FF4803009
:10C80000DFF8781708600120DFF8741708602F2020
:10C81000FFF780FF0120DFF86C1708600020DFF8C9
:10C82000681708602F20FFF775FF0020DFF8441716
:10C83000087001BDDFF8540700687047401A20F007
:10C840007F407047DFF848170860704710B4DFF882
:10C8500044170968002903D1DFF83817086031E070
:10C86000DFF83017096809680268914211D3DFF8D0
:10C87000241709680A680168521ADFF8181709684E
:10C880000A60DFF810170968C161DFF8081708604F
:10C8900018E00468DFF8FC160B68DFF8F816096882
:10C8A000002907D00A68A24204D20A68A41A0B0021
:10C8B000C969F5E7002902D00A68121B0A60046002
:10C8C000C161D86110BC7047F8B50500DFF8C40637
:10C8D0000668DFF8C00607683C00002C04D0AC42B4
:10C8E00002D02700E469F8E7002C01D100202EE0F7
:10C8F000A7421AD1DFF89C060068C069DFF89416D9
:10C900000860DFF89006006800280ED10120DFF8EB
:10C91000741608600020DFF8701608600120DFF848
:10C92000781608702F20FFF7F5FE2168E069F8619E
:10C93000F869002802D002688A180260DFF85426DD
:10C940001268964201D0012000E00020C0B2F2BD82
:10C9500080B51120FFF7AEFE01BD80B51420FFF7B2
:10C96000A9FE01BD10B50400A0696169884710BD2A
:10C97000F8B5DFF820060068002840D00026FFF751
:10C9800059FFDFF804160968FFF758FF0700DFF8C2
:10C9900004060468002C11D0206887420ED320685A
:10C9A0003F1A206886192500E469287C0028F1D008
:10C9B000002028742800FFF7D5FFEBE7DFF8DC053F
:10C9C0000078DFF8DC15097888420FD1DFF8D00550
:10C9D0000078401CDFF8C8150870DFF8C40500783F
:10C9E000022803D10020DFF8B8150870DFF8B4057D
:10C9F000DFF8AC15097840F82160FFF7AEFFF1BD14
:10CA00000100DFF898050078DFF89425127890424D
:10CA100029D0DFF888050078401CDFF880251070E9
:10CA2000DFF878050078022803D10020DFF86C25B4
:10CA30001070DFF87005DFF86425127850F82200D6
:10CA40000860DFF84405026808688218DFF83805D6
:10CA50000260DFF83405006820F07F40DFF8282509
:10CA60001060012002E00020086000207047F0B450
:10CA700003000024DFF81C050068002823D0DFF83D
:10CA8000140505682868834203D22868C01A286004
:10CA900019E028681B1A2868041900202860DFF8AC
:10CAA000F4040668E869DFF8EC743860E868002888
:10CAB000E0D0601820F07F406860E868A8601068E7
:10CAC000E8611660D6E7F0BC70472DE9F04104003C
:10CAD0000025DFF8C0040668002C08D1DFF8C80480
:10CAE0000078DFF8C4144978884200F09280002C66
:10CAF00003D02700F86904005BE0DFF8AC14DFF82E
:10CB0000A80402781820424301EB020010F1040847
:10CB1000DFF894040078401CDFF88C140870DFF80C
:10CB200088040078DFF880148978884203D10020D7
:10CB3000DFF874140870D8F8047098F80000012821
:10CB40001ED021D303280BD01ED2D8F80400FFF743
:10CB5000BBFE002801D00120050000203874BBE78F
:10CB6000DFF830040068002809D0DFF828040068E6
:10CB700000210174C069DFF81C140860F0E7ABE71E
:10CB8000387C002801D101E0A6E7A5E7D8F8080025
:10CB90007860D8F80C00B860D8F81000F860D8F8C1
:10CBA0001400B861DFF8F0030078002801D00020FD
:10CBB00078607968DFF8D0030068091A21F07F41B6
:10CBC000DFF8E803814209D2DFF8BC030168786826
:10CBD000FFF734FEB968081838600EE07968DFF8AE
:10CBE000A8030068FFF72AFEB968884203D2B96833
:10CBF000081A386001E000213960002078600020C8
:10CC0000B860012038740020F8613800FFF71EFE7C
:10CC100062E7EDB2002D04D1DFF878030068B0427E
:10CC200001D0012000E00020C0B2BDE8F0812DE974
:10CC3000F0470400DFF85C03006800283CD0DFF810
:10CC4000540300680568FFF7F5FD0600DFF83803B8
:10CC5000D0F8008041463000FFF7F0FD0700FF1CD0
:10CC6000DFF810030078002801D1FFF7A1FDAF42E3
:10CC700001D2280000E0380010EB080828F07F48B7
:10CC80004046FFF7DFFDFFF7D5FD81463100404606
:10CC9000FFF7D4FD824631004846FFF7CFFDC01CA8
:10CCA00082450BD2FFF7C6FDFFF7CCFD2F20FFF723
:10CCB00031FDFFF74DFE01E0FFF797FDBDE8F0877E
:10CCC000FEB5002000900024AF480568B148066812
:10CCD00001A8FFF795FE07003800C0B2002806D073
:10CCE0006A4629000198FFF7C2FE0120040000985F
:10CCF000FFF7EBFE002801D0012004002000C0B2A5
:10CD0000002802D03000FFF792FF0020A2490870EF
:10CD1000F7BDA5494870704710B40100A248427899
:10CD2000521C1000A04B9B78C0B2984201D1002049
:10CD3000020010009C4B1B78C0B2984201D1002029
:10CD400008E00A70984B984844781820444303EB55
:10CD50000400001D10BC70472DE9F84306000F00C9
:10CD600090469946002400208DF80000684601F0A6
:10CD700099F90DF10100FFF7CFFF0500002D02D159
:10CD8000042004000EE0012028706E60FFF752FDC1
:10CD9000A860EF60C5F81080C5F814909DF80100F8
:10CDA000FFF7B7FF9DF8000001F082F9002C01D1D8
:10CDB000FFF7D3FD2000BDE8F283F8B506000F00B1
:10CDC000002500208DF80000684601F06BF90DF198
:10CDD0000100FFF7A1FF0400002C02D10420050090
:10CDE00005E0277066609DF80100FFF792FF9DF84F
:10CDF000000001F05DF9002D01D1FFF7AEFD280024
:10CE0000F2BD80B500206A490860002069490860C9
:10CE100000206949086000206849086000206849CE
:10CE20000860002067490860FFF7A2FD01BD80B5DA
:10CE3000FFF746FF01BD80B5FFF7D7FC00205A4938
:10CE400008700020584948700B205749887000200E
:10CE5000504908600020514908700020504908706E
:10CE60001420FFF733FC07211420FFF73BFC1420AC
:10CE7000FFF708FC0020FFF791FCFFF7DBFC4249BD
:10CE80000860002002BD10B40300474880780028E5
:10CE900001D1082014E01000002801D107200FE084
:10CEA000002B01D107200BE01868007C002801D07E
:10CEB000082005E01C680020207461746261002075
:10CEC00010BC70472DE9F04104000D00160027004A
:10CED00035488078002801D1082019E0002C01D1C4
:10CEE000082015E0052D01D2072011E078690028FF
:10CEF00001D108200CE0787C012801D1A84601E08E
:10CF00005FF000083300424629003800FFF724FF95
:10CF1000BDE8F08138B5040025002348807800285A
:10CF200001D108200CE0002C02D06869002801D152
:10CF3000082005E00020287402212800FFF73DFFAB
:10CF400032BD000000E100E080E100E000E200E02E
:10CF500080E200E018ED00E000E400E00024F400CE
:10CF6000841B0020081501404413014004130140B4
:10CF700000100140282400204813014008130140FC
:10CF80000410014008100140BC230020041501409A
:10CF900040150140B8230020292400202624002029
:10CFA000272400204C230020AC1B0020FFFF7F0023
:10CFB0004011014044110140481101404C11014011
:10CFC000001101400411014001212C4A0300DBB291
:10CFD000D1507047294900B20858002801D00120DB
:10CFE00000E00020C0B2704781B00021234A030056
:10CFF0001BB2D1502149020012B289580091009908
:10D0000001B0704701201E49086070471D4A10603A
:10D010001D4A116070470100C9B21C4A1160704777
:10D0200000201B4908800020194948800020194928
:10D030000870704701001748007800280AD014488B
:10D04000008808801248408848800020114A1070EB
:10D05000012000E00020704780B50321002000F08F
:10D060001BF80B4908800421002000F015F808493E
:10D07000488001200749087001BD00000070004091
:10D08000007500402C76004030760040F07500407E
:10D09000A4230020242400203EB504000D0002201B
:10D0A0008DF8040003208DF8020000208DF80500A3
:10D0B0008DF807508DF8085000208DF803000020EF
:10D0C0008DF8000000208DF80100FFF79BFF012084
:10D0D000FFF7A1FF69462000C0B201F003F800F09D
:10D0E00002F880B23EBD80B501216846FFF78EFF91
:10D0F0000020FFF769FF4FF48070FFF76BFF0028F7
:10D10000F9D04FF48070FFF76FFF0420FFF75CFF4A
:10D110004FF48270FFF75EFF0028F9D04FF4827061
:10D12000FFF762FF0820FFF74FFF4FF48A70FFF709
:10D1300051FF0028F9D04FF48A70FFF755FFBDF971
:10D14000000002BD416802685268914202D100218C
:10D1500081600DE04168096842685268914203D0DD
:10D1600041680968816003E0416808314160E9E78E
:10D17000704738B504000D00256028686060200005
:10D18000FFF7E0FF31BD10B50400A06800280FD004
:10D19000A168206880684118A160A068616849683A
:10D1A000884205D16068083060602000FFF7CAFF40
:10D1B00010BDFEE701005FF0A04070472DE9F1418E
:10D1C00081B00E0017009846089C099D01A8FFF742
:10D1D000F1FF3100C9B23A00D2B251EA42014246EF
:10D1E000D2B251EA82012200D2B251EA02212A00CF
:10D1F000D2B251EA0241019A00EB8202C2F8001752
:10D20000BDE8F3811CB504000020019000200090CF
:10D210000023012201212000FFF7D0FF13BD11B52B
:10D2200081B001A8FFF7C6FF0400012101988140E9
:10D23000200000F050F813BD11B581B001A8FFF730
:10D24000B9FF0400012101988140200000F046F858
:10D2500013BD01B56846FFF7ADFFD0F804250123E3
:10D2600000998B409343C0F80835012300998B4007
:10D270001340C0F80C3501BD38B505000C00002C7A
:10D2800003D12800FFF7D8FF02E02800FFF7C7FF0F
:10D2900031BD11B581B001A8FFF78CFF040020005B
:10D2A00000F013F80199C84010F0010016BD11B547
:10D2B00081B001A8FFF77EFF0400200000F008F80D
:10D2C0000199C84010F0010016BDD0F81005704754
:10D2D000D0F804057047C0F808157047C0F80C1561
:10D2E000704710B504002F48005DFFF7E0FF0028ED
:10D2F00001D0012000E0002090F00100C0B210BD7C
:10D3000010B5040000212748005DFFF7B5FF10BDF0
:10D3100010B50024032C04D22000C046C046641C73
:10D32000F8E710BD10B50024032C04D22000FFF74D
:10D33000E7FF641CF8E710BD10B504001948005D54
:10D34000FFF787FF10BD10B50024032C05D2154848
:10D35000005DFFF757FF641CF7E7FFF7D9FF10BD2B
:10D3600010B504001048005DFFF793FF002801D0BE
:10D37000012000E0002090F00100C0B210BD0100CB
:10D380005FF0FF300022022A07D2074B9B5C8B42E2
:10D3900001D1100001E0521CF5E770470249085C1A
:10D3A00070470000E4300200F6930100B3BBD9B12E
:10D3B000B2F5803F7DD2022A1ED98C46B1FBF2F134
:10D3C00002FB11C31B0443EA1043B3FBF2FC02FB54
:10D3D0001C3380B240EA0343B3FBF2F002FB10328D
:10D3E00040EA0C4000237047022A05D98446B0FB6E
:10D3F000F2F002FB10C270474AB105D100F0010201
:10D4000049085FEA3000704700220023704700F0AF
:10D410009DBE0B000200002100207047904271EB7E
:10D42000030CF6D3B3F5803F2FD2F0B5B3FA83F7F0
:10D43000B1FA81F4A7F10F0E3D1B5340CEF1200647
:10D4400002FA0EF2F3415340B5F10F0746D80F3CF4
:10D450002C444140C4F12006A040F1414140B1FBC1
:10D46000F3F603FB1611A2FB0645001BA94102D2ED
:10D47000761E8018594180EA010221FA0EF362FA01
:10D480000EF200215A403046F0BD30B4B1FBF3FC3F
:10D4900003FB1C11A2FB0C45001BA94103D2ACF1FC
:10D4A000010C8018594130BC02460B4660460021F1
:10D4B0007047B2F1807F65D3F0B5B2FA82F7B1FA66
:10D4C00081F4C7F10F063D1B22FA06F307F1110E96
:10D4D000F24120355A40B5F10F07B8D94140C4F1A7
:10D4E0002006A040F1414140B1FBF3FC03FB1C11BD
:10D4F000A2FB0C45001BA94103D2BCF1010C801812
:10D5000059410F2F12D30F3FC90341EA5041B1FBDC
:10D51000F3F603FB1611A2FB0645D4EBC030A9417C
:10D5200002D2761E8018594146EACC3C07B34140EE
:10D53000C7F12006B840F1414140B1FBF3F603FBCF
:10D540001611A2FB0645001BA94102D2761E8018C7
:10D55000594180EA010221FA0EF3C7F1200462FA70
:10D560000EF20CFA07F05A402CFA04F13043F0BDE9
:10D5700080EA010221FA0EF3002162FA0EF26046FF
:10D580005A40F0BD8C46B1FBF2F102FB11C31B0205
:10D5900043EA1063B3FBF2FC02FB1C331B024CEAB0
:10D5A000002043EA1063B3FBF2FC02FB1C331B02B6
:10D5B0004CEA002043EA1063B3FBF2FC02FB1C338D
:10D5C0001B024CEA002043EA1063B3FBF2FC02FBAF
:10D5D0001C324CEA002000237047FEE72DE9F84397
:10D5E00004000025280069490978C0B2884242D267
:10D5F000674800682900C9B200EBC106012096F90E
:10D60000007010FA07F763480068074231D061489C
:10D610000068B8435F490860307800F0D7FF804663
:10D620005D480168012296F900008240114042469F
:10D63000D2B296F90000824091421AD17078012846
:10D6400001D1012000E000204146C9B2C0B290EAF9
:10D65000010F02D15FF0010901E05FF000095FFAFC
:10D6600089F97068002804D04946C9B230787268D8
:10D6700090476D1CB6E7BDE8F183F8B505000E00D4
:10D680000127AF4045480068FFF744FC0400002C28
:10D6900026D14048006838421DD1280000F096FF8E
:10D6A000002805D03C48006838433B49086004E046
:10D6B00039480068B843384908603648006838433C
:10D6C0003449086000223648016834480068FFF792
:10D6D000F9FB040004E02F480068B8432D490860B6
:10D6E000F1BD2DE9FC4105000E001700052F01D208
:10D6F000072037E000F0BEFE002806D100F089FECA
:10D700000400002C01D020002CE0214805601F48B7
:10D7100006702348076000201F49086000201D494B
:10D7200008603000461EC0B2002816D03000C0B2DB
:10D7300005EBC0081B480068009098F802008DF8BF
:10D740000100194A694698F8000000F09DFE0400A7
:10D75000002C01D0200005E0E3E7144A00210F4827
:10D76000FFF791FBBDE8F68110B50024074800786B
:10D77000844208D201210648006810F8340000F005
:10D78000C7FE641CF2E7002010BD00002524002025
:10D79000A8230020B4230020B0230020DC300200A6
:10D7A000AC230020E03002007BD60100DDD5010073
:10D7B00001220B00DBB2C250704781B000220B0087
:10D7C0001BB2C2500A0012B282580092009A01B0F5
:10D7D000704709B24058002801D0012000E0002025
:10D7E000C0B27047C0F804137047C0F80813704700
:10D7F0000621C0F800157047C0F80815C0F80C25C0
:10D800007047C0F8241570470100D1F8C404C1F86E
:10D81000C40470470A00D2B2C0F888257047C0F827
:10D8200044151300DBB2C0F848357047C0F8341512
:10D830001300DBB2C0F838357047C0F800127047EB
:10D84000D0F84C057047D0F83C0570470121C0F86E
:10D85000501570470021C0F8501570470121C0F8DD
:10D86000401570470021C0F84015704701000800BE
:10D87000000B40B2704710F06040B0F1005F01D182
:10D88000012000E00020C0B2704701005FF0A0401E
:10D89000704711B581B001A8FFF7F7FF040001211F
:10D8A00001988140200000F01FF813BD11B581B030
:10D8B00001A8FFF7EAFF0400012101988140200040
:10D8C00000F015F813BD11B581B001A8FFF7DDFF19
:10D8D0000400200000F005F80199C84010F0010094
:10D8E00016BDD0F810057047C0F808157047C0F88D
:10D8F0000C15704700000000DFF8DC1600283ED051
:10D90000DFF8D826126800BF00BF00BF00BF00BF0D
:10D9100000BF00BF00BF8A422FD000BF00BF00BFC2
:10D9200000BF00BF00BF00BF00BF00BF00BF00BFFF
:10D9300000BF00BF00BF00BF00BF00BF00BF00BFEF
:10D9400000BF00BF00BF00BF00BF00BF00BF00BFDF
:10D9500000BF00BF00BF00BF00BF00BF00BF00BFCF
:10D9600000BF00BF00BF00BF00BF00BF00BF00BFBF
:10D9700000BF00BF00BF00BF00BF401EC3D1704743
:10D98000010003208A0702D548F2012210004A074D
:10D9900002D548F202221000704738B505004FF456
:10D9A000C060DFF83C162A6841F822004FF4C060DE
:10D9B000DFF82C166A6841F822002868FFF769FF33
:10D9C0006868FFF766FF40F20160DFF814162A6806
:10D9D00041F8220040F20160DFF804166A6841F85D
:10D9E00022000420FFF788FF0024092C15DA68685C
:10D9F000FFF769FF002802D0002C17D00DE028683F
:10DA0000FFF754FF0420FFF777FF2868FFF741FF77
:10DA10000420FFF771FF641CE7E76868FFF746FF23
:10DA20000420FFF769FF6868FFF733FF31BD2DE978
:10DA3000F84304000D0016001F00DFF8A815227936
:10DA40002820424301EB020898F82200002801D068
:10DA500008203DE0C8F80060C8F804700020C8F84D
:10DA60000800002088F82500002088F82400A87B02
:10DA700088F82700687B002802D02800FFF78DFF78
:10DA80004FF4C060DFF858152A6841F822004FF4BF
:10DA9000C060DFF84C156A6841F82200D4F80090A5
:10DAA0006A6829684846FFF7A7FEA9684846FFF755
:10DAB000A8FED8F80000002806D02068FFF7D6FEA0
:10DAC000297B40B200F0C4FD012088F8220000202C
:10DAD000BDE8F28370B50400DFF80815227928202C
