:020000040001F9
:10800000482C0020152B020083A00100C7A001000E
:10801000A3AD010017CF0100FBDD0100000000004F
:1080200000000000000000000000000087DE0100EA
:1080300027100200000000005B100200FF1F02007A
:1080400069210200D72902001326020017DD010072
:10805000E32902000000000051A40100812C02006D
:10806000832C0200852C0200872C0200892C020040
:108070008B2C02008D2C02008F2C0200912C020010
:10808000932C020079CB0100952C0200972C020062
:10809000A5CB0100992C020009B301009B2C020022
:1080A0009D2C02009F2C0200000000000000000038
:1080B000A12C0200A32C0200000000000000000020
:1080C00000000000000000000000000000000000B0
:1080D00000000000000000000000000000000000A0
:1080E0000000000000000000000000000000000090
:1080F0000000000000000000000000000000000080
:10810000000000000000000000000000000000006F
:10811000000000000000000000000000000000005F
:10812000000000000000000000000000000000004F
:10813000000000000000000000000000000000003F
:10814000000000000000000000000000000000002F
:10815000000000000000000000000000000000001F
:10816000000000000000000000000000000000000F
:1081700000000000000000000000000000000000FF
:1081800000000000000000000000000000000000EF
:1081900000000000000000000000000000000000DF
:1081A00000000000000000000000000000000000CF
:1081B00000000000000000000000000000000000BF
:1081C00000000000000000000000000000000000AF
:1081D000000000000000000000000000000000009F
:1081E000000000000000000000000000000000008F
:1081F000000000000000000000000000000000007F
:1082000010F0030F01D1012000E00020C0B2704740
:1082100010B4020052E8000F00EB010342E8003402
:1082200094F0000FF6D110BC7047000010B40200AB
:1082300052E8003F03EB010042E8000494F0000F15
:10824000F6D110BC7047000010B4020052E8003FA5
:10825000A3EB010042E8000494F0000FF6D110BC3B
:10826000704738B504000025042D0BD2DFF85C18E8
:1082700051F82500002803D0200051F82510884728
:108280006D1CF1E731BD0278012A09D03BD3032AE6
:1082900014D008D3052A2AD020D3062A30D032E0C1
:1082A00000220A702FE001220A7002898A818288E6
:1082B000CA81C2688A6000220A7424E002220A701D
:1082C00002898A818288CA81C2688A60827D062A80
:1082D00001D1012200E000220A7414E003220A7096
:1082E000C2888A810289CA81C2688A600BE004223E
:1082F0000A70C2888A810022CA8100228A6002E054
:1083000005220A70FFE7704702008A4205D2106812
:1083100010F1010F01D0012000E00020C0B2704731
:10832000418800EB81000C30704738B504000D0027
:108330002000FFF7F5FF854201D202200AE0A08865
:108340004FF6FF71884202D02088002801D1012019
:1083500000E0002032BD10B50400002C0ED0DFF884
:108360006409C1688C4209D30069A04206D3200089
:10837000FFF746FF002801D0012000E00020C0B236
:1083800010BD10B41423DFF84049020092B25A43E2
:10839000224412895118020092B203FB02F304EB4B
:1083A00003025289511889B2B1F5806F01DA0120B8
:1083B00000E00020C0B210BC704770B402000A2078
:1083C00000231C00A4B2022C19DA1424DFF8F85898
:1083D0001E00B6B266432E4476688E420DD21E0051
:1083E000B6B204FB06F42C44646814F58054A14230
:1083F00003D200242000138001E05B1CE1E770BC85
:1084000070470389CA1CD31803814289521AD21EAD
:108410004281704780B5002000900823DFF858297A
:10842000DFF858090168DFF89C0800F0C1FE02BDC2
:108430001CB50400002000900823DFF84429210027
:10844000DFF8800800F0B4FE16BD2DE9F047050006
:108450000E000024EF1C380080B240F2FE3188424A
:1084600001DB092035E05FF00008404680B20228B9
:1084700029DA5FF01409DFF850A8404680B209FB02
:1084800000F01AF8000000281AD1390089B24046DD
:1084900080B2FFF776FF002812D001200400A6F872
:1084A0000080404680B209FB00F05044414689B24A
:1084B00009FB01F90AEB090149897918418102E0B8
:1084C00018F10108D1E7E4B2002C01D0002000E04F
:1084D0000720BDE8F08730B41422DFF8EC370C0039
:1084E000A4B254431C440D00ADB202FB05F21A4481
:1084F0005289121AD21E628130BC704780B50121A8
:10850000DFF87008FFF792FE02BD2DE9F04105008B
:108510000E001420DFF8B0172A0092B242430A443A
:10852000526812F580573468002C04D02000FFF701
:10853000F7FE804607E02A0092B200FB02F00844F2
:10854000406810F1080839004046FFF7DDFE0028BA
:1085500014D039004046FFF7E8FE002803D0022877
:108560000AD004D3EFE7C6F80080012007E04046B8
:10857000FFF7D6FE8046E6E7002000E00020BDE8D9
:10858000F08138B504000D006068FFF7E4FE0028B4
:1085900015D02089DFF8C819098988420FD12068D1
:1085A0006168896888420AD161682800FFF705FF81
:1085B000002801D1012000E00020C0B21EE0002010
:1085C00028802888022818DA002000906946288828
:1085D000FFF79BFF00280CD0009988682268904222
:1085E000F4D100986060DFF87809008920810120CB
:1085F00004E02888401C2880E3E7002032BDF8B55D
:1086000004000D0016001F00DFF85809007800284C
:1086100001D1022034E0002E01D0002F01D105202D
:108620002EE0B88802282ADADFF89C16BA881420CF
:108630004243885C00281ED13900B888FFF765FFE7
:10864000002816D03968002C03D0888822889042F0
:10865000F2D1002D03D008882A889042ECD1886896
:10866000306038687060DFF8F808008930810020D9
:1086700006E000203860B888401CB880D1E70A20A6
:10868000F2BD2DE9F04104002100DFF82C0900685B
:1086900000F0BAFE05001C260027A8463A0031006B
:1086A000404600F0EBFE2800BDE8F08110B5040064
:1086B0002100DFF80409006800F0B5FE10BD10B518
:1086C00004002100DFF8F008006800F0BAFE10BDD9
:1086D00010B504002100DFF8E008006800F0C0FEDB
:1086E00010BD80B50121DFF83009FFF7ADFD00288E
:1086F00001D0012000E00020C0B202BD38B5040066
:108700000D000220A075002000900423221D2900E6
:10871000DFF8B00500F04CFD002801D1002000E09A
:108720000E2032BD38B504000D002069002801D0AC
:10873000032000E00120A07500200090042314F124
:108740000C0215F10801DFF87C0500F031FD00286E
:1087500001D1002000E00E2032BD38B504000D002C
:108760002078032801D1052000E00620A075002014
:108770000090042314F10802291DDFF8480500F0D9
:1087800017FD002801D1002000E00E2032BD7CB58D
:1087900004000D00002000900423DFF89829210038
:1087A000DFF8200500F004FD0100002901D00E20B3
:1087B0000AE00122DFF8B0372E00B6B2142046439B
:1087C00003EB06000274002076BD38B584B00400C7
:1087D00001A800210022002380E80E00E06801903B
:1087E000694601A8FFF7CDFE00280AD0029DA8889F
:1087F000E08028882081BDF800100298FFF7C7FFAD
:1088000000E00A2005B030BD2DE9FF410500DFF88A
:10881000286933006A460021A81DFFF7F0FE040016
:10882000002C05D1B1880198FFF7B1FF040007E0E3
:1088300008275FF0000842463900300000F01EFEB5
:10884000200004B0BDE8F08138B504000D0001201F
:10885000A07500200090E0888300226915F10C01CA
:10886000DFF8600400F0A4FC002801D1002000E043
:108870000E2032BD10B4DFF8E8160889401C0881CC
:1088800000204880002008730022100080B20228D7
:1088900011DADFF8D4361400A4B214204443185D72
:1088A000002801D1012000E0002013009BB20B44FE
:1088B0009872521CE9E710BC704730B402000021E6
:1088C0000023180080B2022825DADFF89446180049
:1088D00080B22044807A00281BD000201D00ADB259
:1088E0002C44A0721424DFF88056180080B2604334
:1088F0002844C06800280CD1180080B204FB00F4A2
:1089000005EB0400007C012803D113800120010045
:1089100001E05B1CD5E70800C0B230BC704780B5F1
:108920000520DFF83C160870DFF850040221818032
:10893000002301220168DFF8040800F078FC02BD82
:1089400070B5DFF81C164C881425DFF87C63200016
:1089500080B268433044C06800280FD104200870FA
:1089600000230122200080B205FB00F506EB050084
:108970004168DFF8C80700F05AFC01E0FFF7CFFFBD
:1089800070BD7CB5DFF8D8054468DFF8F0130A68DD
:10899000898802EB81056688F61C0321017000219D
:1089A0000091310089B28B0042682900C54800F06F
:1089B000FFFB76BD80B5DFF8DC07011D4088FFF7BF
:1089C000A4FD002802D0FFF7DCFF01E0FFF7B8FFAD
:1089D00002BD80B5DFF8880506210170DFF8881533
:1089E00042881420424301EB02004068FFF720FD5B
:1089F00002BD80B5DFF868050721017000214160E4
:108A0000FFF708FD02BD10B5DFF85445A01CFFF7C5
:108A100054FF002808D10020207000206080002032
:108A2000606041F61D5001E0FFF7C4FF10BDDFF8A4
:108A3000300540684188C91CDFF840239388CB1873
:108A40009380704730B4DFF8341308681422DFF8DD
:108A50001035DFF814455D88554325446D680D6079
:108A60005D885543254468605B8802FB03F222441D
:108A70008B88138102228A8030BC704710B5DFF8E2
:108A8000E044207800280AD003280DD0042810D014
:108A9000052813D0062811D0072812D014E0FFF7BC
:108AA000E9FE012020700FE0FFF7C1FF02202070D7
:108AB0000AE0FFF7C7FF0620207005E007202070BE
:108AC00002E001202070FFE710BD0000AC22002072
:108AD0002DE9F04104000E000F25002C05D00020E8
:108AE000DFF8B4164860012088E03079002805D00E
:108AF00002283AD008D3032844D076E00120307110
:108B0000FFF788FC050070E000275FF00008404692
:108B100080B202281BDA14206B49424692B24243CB
:108B20008A5C022A10D1002243469BB24343CA54B6
:108B300001221700424692B200FB02F0084440684E
:108B4000FFF776FC050002E018F10108DFE73800C6
:108B5000C0B2002808D1DFF84006012101700021D1
:108B6000416041F61D5049E03FE0002030718348EC
:108B700002218180002301220168524800F057FB46
:108B8000050032E0002030717C4F3868FFF750FC60
:108B90000500DFF8CC034088396814224A4B84462C
:108BA0001FFA8CFC02FB0CFC9C44DCF804C0C7F8E8
:108BB00000C084461FFA8CFC02FB0CFC9C44CCF8E1
:108BC000041084461FFA8CFC02FB0CFC9C44B7F892
:108BD00004E0ACF808E05FF0020CA7F804C000273E
:108BE00080B202FB00F29F54FFE7002D05D0002069
:108BF000DFF8A41548600E2000E00020BDE8F081F9
:108C00002DE9F04104000E002F49B28A142042439E
:108C100001EB0207002C05D0F1883800FFF7F1FBCB
:108C200001204DE07868398900EB8108B07D00288B
:108C300017D002281BD026D3042804D01DD3062821
:108C400033D026D334E0DFF8540500214160B16908
:108C50000160DFF84C15FFF794FC002801D10A20D1
:108C60002EE041463000FFF749FD050021E0414676
:108C70003000FFF757FD05001BE041463000FFF7CD
:108C8000E3FD050015E041463000FFF766FD0500F5
:108C90000FE00620B075DFF808050188DFF8FC0456
:108CA0004068FFF774FD050003E041F61D5500E044
:108CB0000F25002D03D0F1883800FFF7A2FB280014
:108CC000BDE8F081981B00201021002038B5040079
:108CD0000D00002C01D0012019E02879002803D0D4
:108CE000022810D006D311E0022028712800FFF7D7
:108CF0006CFD0CE02800FFF787FD0A2802D141F641
:108D00001D51080003E041F61D5000E00F2032BD68
:108D100038B50400002C01D0012029E0904D287BBB
:108D2000002802D00020287301E0FFF7A7FE287872
:108D300001280AD002280BD003280CD004280DD01B
:108D400006280ED007280FD011E0FFF75CFE0FE0D9
:108D5000FFF730FE0CE0FFF714FE09E0FFF7F0FD2F
:108D600006E0FFF736FE03E0FFF743FE00E00F20CA
:108D700032BD0000CC230020B42B02006C23002065
:108D8000BC2B02002DE9F84185B00400DFF8145433
:108D90002868002804D1DFF81004FFF790FC286051
:108DA00028680078012809D01FD303280CD00BD3E2
:108DB00005280FD00ED3062812D016E0296820000F
:108DC000FFF786FE040012E029682000FFF718FF75
:108DD00004000CE029682000FFF778FF040006E09B
:108DE0002000FFF795FF040001E00F200400002C95
:108DF00022D014260027E8463A003100404600F011
:108E00003DFB41F61D50844204D10020019000201A
:108E1000040000E0019469462868FFF734FA6846C8
:108E2000FFF71FFA00202860DFF87C03FFF750FCF3
:108E3000FFF757FC0028A9D106B0BDE8F08180B546
:108E400001217548FFF7E4F9002802D10020FFF75F
:108E500099FF01BD10B504006068FFF793FF10BDD6
:108E60002DE9FE4F04000D00160099465FF0000A40
:108E70005FF000083B480078002801D102206DE037
:108E8000002D01D1052069E028884FF6FF71884246
:108E900002D06888002801D104205FE06868FFF7ED
:108EA000AFF9002801D1032058E0002E0BD1D5F8EE
:108EB00008B06946584680B2FFF7C7FA0700002F8E
:108EC00006D038004AE03088ADF80000B6F802B0AD
:108ED00001A8FFF7D6FB8046B8F1000F07D1BDF817
:108EE0000010584680B2FFF7F6FA082036E088F8FE
:108EF0000090002088F81600BDF80000A8F81400C3
:108F00006868C8F81000FFF7F9FAC8F80C0028885C
:108F1000A8F808006888A8F80400A8F806B0484631
:108F2000C0B2032805D1042088F816002068C8F8CC
:108F30001800A8F80AA001A8FFF7B8FB002C0AD077
:108F400000206060D8F80C0020600020A072DFF8DC
:108F5000440200892081FFF772FF0020BDE8FE8FE8
:108F6000CC22002064230020102100207CB50400C6
:108F70000D00002C01D0002D01D105201BE0694619
:108F80002000FFF7FEFA002814D066680121DFF800
:108F90001C22BDF800301420434302EB03000C30C8
:108FA000FFF744F92E6060680C3068600120A07201
:108FB000002000E00A2076BD542C02001CB50400FD
:108FC000002C01D1052025E069462000FFF7D9FAE1
:108FD00000281ED01421DFF8D421BDF8000048433A
:108FE0001044C068002812D0A07A00280FD0BDF825
:108FF000000048431044BDF8003001FB03F1114468
:10900000C968491EC1600020A072002002E006204D
:1090100000E00A2016BD0000C823002038B5040077
:109020000D005D480078002801D102200EE0002CE0
:1090300001D105200AE06946280080B2FFF705FA51
:10904000002803D1BDF800102180658032BD38B5FD
:10905000040051480078002801D102201EE0002CB5
:1090600001D105201AE02088032801DB042015E047
:109070004E4922881420424301EB02056889618829
:10908000C91C884209DB21886088FFF724FA002088
:10909000208000206080002000E0042032BD38B530
:1090A00004000D000223002229002000FFF7D8FE53
:1090B00032BD70B505000E001400002C01D1052052
:1090C00005E00223220031002800FFF7C9FE70BD31
:1090D00038B504000D00002C01D1052005E0032364
:1090E000002229002000FFF7BBFE32BD38B5050085
:1090F00029480078002801D102201AE028004FF604
:10910000FF7180B2884201D1042012E06846FFF767
:10911000B8FA0400002C01D108200AE005202070D4
:1091200001202071E5806846FFF7C0FAFFF787FE4F
:10913000002032BD582C020074230020981B002010
:1091400033B581B014001D002B00220002A901A834
:10915000FFF755FA3EBD31B50C0015002B0022007B
:1091600069460020FFF74BFA32BD31B50C001500FF
:109170002B00220000216846FFF741FA32BD0200B1
:10918000002A01D0002901D1052002E01068086002
:1091900000207047CC2200206423002028230020D8
:1091A0000A240020D0230020D423002010210020F6
:1091B0002DE9FC4104000F0015001E00DDF82080A1
:1091C000002C01D0002D01D10E202EE020680028B7
:1091D00001D1082029E0002E07D060684068B6FB66
:1091E000F0F100FB1160002801D009201DE03800DB
:1091F00000F089F800280BD0280000F084F800283F
:1092000006D032003900200000F070F8002801D1AB
:1092100010200AE0CDF8008033002A003900200039
:10922000D4F800C0DCF80CC0E047BDE8F681F8B522
:1092300004000E0015001F00002C01D10E2022E0BA
:109240002068002801D108201DE0002D01D109204F
:1092500019E060680068401E064209D16068026833
:1092600002FB05F23100200000F040F8002801D197
:10927000102008E03B002A0031002000D4F800C094
:10928000DCF810C0E047F2BD38B50400002C02D075
:10929000206800281DD1002511491248091A142000
:1092A000B1FBF0F0854212D20F48142101FB05F109
:1092B000084404002068002807D020002168C969FC
:1092C0008847002801D0012007E06D1CE4E700205A
:1092D00003E020002168C969884732BD0000000012
:1092E000AC1B0020981B0020981B0020C3689942EB
:1092F00006D300695118491E884201D3012000E0BD
:109300000020C0B2704710F0030F01D1012000E02F
:109310000020C0B2704730B4002513E050F8042B91
:10932000D30744BFA9F101039A18091F042942F881
:10933000045BFAD213468C0744BF15809B1CC907F7
:1093400048BF1D7050F8041B0029E7D130BC70479E
:109350003CB4020052E8015FABB2D4892344948943
:10936000A34228BF1B1B1489A34202BFBFF32F8F48
:10937000002007E0C3EA050342E80134002CE9D1EC
:109380004FF0010001958DF80000019808609DF8EC
:10939000000036BC7047000050E8012FC2EA0242CC
:1093A00040E801210029F7D1704700003CB40200D9
:1093B00052E8025F1FFAA5F3D488A34202BFBFF3AD
:1093C0002F8F00200DE0D48923449489A34228BF25
:1093D0001B1BC5EA034342E80234002CE8D14FF0DE
:1093E000010001958DF80000019808609DF80000CB
:1093F00036BC704750E8022FC2EA224240E8022100
:109400000029F7D17047000038B504000D0029008D
:109410002000FFF79DFF002803D02068298808441A
:1094200000E0002032BD38B504000D0028886988AE
:10943000884204D12000FFF7AFFF012000E00020A8
:1094400032BD38B504000D0029002000FFF7AEFF43
:10945000002803D020686988084400E0002032BD5D
:1094600038B504000D0028886988884204D120009E
:10947000FFF7C0FF012000E0002032BD62F30F22A1
:1094800062F31F42401810F0030308D0C91A1FD31B
:10949000DB0748BF00F8012D28BF20F8022D13007C
:1094A00030B414461546103928BF20E93C00FAD8DC
:1094B000490728BF20E90C0048BF40F8042D890067
:1094C00028BF20F8022D48BF00F8012D30BC70479E
:1094D000C91818BF00F8012DCB0728BF00F8012DCF
:1094E000704706110120DFF8F81A0860BFF34F8FAC
:1094F00020BFFDE738B59DF8000010F0F00050F0F7
:1095000001008DF800009DF8000010F00F0050F0F1
:1095100010008DF80000DFF8CC4A200000F096FD26
:10952000020092B2210068467CDF05002C00002C6E
:1095300005D0DFF8B42AAE21200000F0A3FD31BD34
:1095400010B500F031F8DFF8A40A0078002801D047
:1095500000F013FD00F002FCFFF7CCFFDFF8904AAB
:10956000200000F09FFD00F059FC200000F09AFD63
:1095700000F02CFE00F087F800F0E3F8DFF8740A42
:109580000168491C016001684FF6FF72914201D3E6
:109590000021016000F058FF44F2885000F0D2FD35
:1095A000012000F0AEFCE5E72DE9F04100252800A0
:1095B00080B2152821DA00200400200080B20328A0
:1095C00019DA0620DFF8301A2A0092B24243114419
:1095D000220092B2002321F81230DFF8201A2A006C
:1095E00092B200FB02F00844210089B2002220F868
:1095F0001120641CE1E76D1CD9E7DFF8040A0021A3
:109600000180002141800020DFF8F8190880182629
:109610000027DFF8F4893A0031004046FFF72EFFBB
:109620000020DFF8E81908700020DFF8E41908705E
:109630000020DFF8E01908700020DFF8B819086092
:109640000020DFF8D419088000F04FFC00F03CFD4A
:10965000DFF8C889404600F025FD00F028FC012015
:1096600000F0A6FE4EF6503000F01CFD00F010FF9A
:10967000404600F017FD002000F09AFE00F067FE63
:109680000120BDE8F0812DE9F041012400250026EC
:1096900000275FF00008012000F08AFE4EF65030EF
:1096A00000F000FD00F0FAFEDFF8740900F0FAFCAB
:1096B00000F0B2FEDFF86C0900F0F4FC4FF47A70B1
:1096C00000F040FD2000C0B200F01BFC322000F092
:1096D00039FD3800C0B200282CD1280080B2002803
:1096E00002D0012807D015E000F02BFC0020060076
:1096F0000120050019E0022000F0D8FE300080B201
:1097000000F0B7F9761C300080B2142801DB02208B
:1097100005000AE000F0E3F9002804D0002000F082
:1097200047FE00200400012007002000C0B200F026
:10973000E8FBCEE7002000F03BFE4046C0B2BDE8AB
:10974000F081F8B500240025002700F07AFE0028FB
:1097500004D0012000F01AFE00200700002600F0CF
:109760005DFB322000F0EEFC0A2000F008FD4FF413
:10977000967000F019FD210089B2300080B200F02F
:109780002BF8641C00F0CEFB00F008FD002821D16E
:1097900000F016FD002811D04FF4967000F004FD83
:1097A000210089B2300080B200F016F8641C20005D
:1097B00080B2082802DB00200400761C012000F0A3
:1097C000A0FB7F1C380080B23D28DDDB002000F0CC
:1097D000DDFDD9E774DFF1BD70B504000D00280090
:1097E00080B2002805D1200080B200F064F80600A5
:1097F00006E0290089B2200080B200F0CCF8060013
:10980000310089B2280080B200F001F870BD2DE966
:10981000F84F92B005000E0006275920ADF8000061
:10982000DFF8E40702903000ADF804003C245FF05C
:1098300000080DF10C09424621004846FFF71EFEC4
:10984000280080B2002803D102208DF80C0002E02D
:1098500000208DF80C008DF80F7068460C900021E8
:1098600003A801F0FEF980464446002C06D0DFF83C
:10987000782740F2B511200000F004FC10245FF0BE
:109880000009DFF8A4A7D3464A4621005846FFF74F
:10989000F5FD03208AF800000020CAF8040000202B
:1098A0008AF80800A020AAF80A000020AAF80C00F4
:1098B00013B0BDE8F08F2DE9F14F86B0DFF84847CF
:1098C000DFF84C070078ADF80000BDF80000DFF8C5
:1098D0004417097850EA4100ADF80000BDF80000D7
:1098E00050F00800ADF8000000F0ABFDBDF800102E
:1098F000C0B251EA8031ADF8001000F08AFDBDF829
:109900000010C0B251EAC031ADF80010BDF800003F
:10991000BDF81810090111F0F0010843ADF800007E
:1099200018200490002003902500039A0499280031
:10993000FFF7A4FD02200290684601902500029ADC
:109940000199280001F0DAF9A61C0424DFF8B056CA
:10995000370022002900380001F0D0F916F1040880
:109960000226DFF8A076C14632003900484601F0F1
:10997000C5F918F1020A5FF00208DFF87896D346BD
:1099800042464946584601F0B9F91AF102010A2047
:1099900007B0BDE8F08F2DE9F14F84B00C00601ED8
:1099A000C00250F00400ADF80000601E032110FB5F
:1099B00001F0ADF80200200080B2072802DA162577
:1099C000032601E01025022600F03BFDBDF8001043
:1099D000C0B251EA8031ADF8001000F01AFDBDF8B8
:1099E0000010C0B251EAC031ADF80010BDF800005F
:1099F000BDF81010090111F0F0010843ADF80000A6
:109A0000DFF804760220039068460290B846039A75
:109A10000299404601F072F917F102085FF0060959
:109A20003700BFB209FB07F7DFF8CC05BDF802101D
:109A300009FB01F108440190C2463A0001995046E1
:109A400001F05CF9300080B209FB00F908EB090A6B
:109A50005FF00208DFF89C95D346424649465846D7
:109A600001F04CF91AF10201280080B205B0BDE8FE
:109A7000F08F38B50400DFF8B4552900022000F05B
:109A80002EFD002815D00620DFF86C152A8823004B
:109A90009BB24343CA52220092B242430A446B88AB
:109AA0005380220092B200FB02F00844A988818012
:109AB00014E00620DFF84015002223009BB2434348
:109AC000CA52220092B242430A4400235380220029
:109AD00092B200FB02F008440021818031BD10B534
:109AE000002400F0B1F8002806D100F076FB002831
:109AF00004D00120040001E000F068FB2000C0B2A7
:109B000010BDF0B487B002ABDFF82445D4E90056AD
:109B1000C3E900566B46DFF81C45D4E90056C3E99B
:109B2000005604AB00240025002683E870000023C3
:109B30001C00A4B2142C55DA002422001400A4B294
:109B4000032C4DDA062402AD1E00B6B2664306446D
:109B50001700BFB236F917601700BFB235F917709A
:109B6000BE420BDA1E00B6B2664306441700BFB20F
:109B700036F817601700BFB225F817606D4616005B
:109B8000B6B235F916601F00BFB26743074494466A
:109B90001FFA8CFC37F91C70BE420BDA1E00B6B2FD
:109BA000664306441700BFB236F817601700BFB20D
:109BB00025F8176004AD1600B6B255F826601F00F0
:109BC000BFB204FB07F404441700BFB234F91740D6
:109BD00006FA84F41600B6B245F82640521CADE7EA
:109BE0005B1CA5E70024220092B2032A29DA04AD07
:109BF000220092B255F8226002AA2700BFB232F9C1
:109C00001720B61A6A462700BFB232F91720B61AD3
:109C1000220092B245F82260220092B255F822202A
:109C2000122692FBF6F22600B6B245F82620220054
:109C300092B255F822202500ADB221F81520641CFF
:109C4000D1E707B0F0BC7047F8B584B0002502A892
:109C500000210022C0E90012684600210022C0E96C
:109C60000012DFF8986302A93000FFF74AFFDFF81F
:109C7000887369463800FFF744FF0021080080B26E
:109C800003282ADA684602AA0B009BB230F9133087
:109C90008C461FFA8CFC32F91CC063450ADA0B00B3
:109CA0009BB232F913200B009BB230F91300121A49
:109CB000140009E00B009BB230F91330080080B2A9
:109CC00032F910001B1A1C00200080B2A12802DB10
:109CD0000120050001E0491CD0E70022100080B2FD
:109CE00014281EDA00200100080080B2032816DACA
:109CF000062013009BB2434333448C461FFA8CFC6E
:109D000096461FFA8EFE00FB0EF038448E461FFA70
:109D10008EFE30F81E0023F81C00491CE4E7521C9C
:109D2000DCE72800C0B205B0F0BD70B501F09DF8C9
:109D300005002C00002C05D0AB4A40F29B212000EE
:109D400000F0A0F932DF06003400002C05D0A64A4E
:109D500040F29F21200000F095F970BD7CB501F024
:109D600036FA05002C00002C05D09F4A4FF42B71C9
:109D7000200000F087F9002000906946012001F0E2
:109D8000D3FA06003400002C05D0974A40F2B221E5
:109D9000200000F077F9684601F03BFB05002C003D
:109DA000002C05D0904A40F2B621200000F06AF95C
:109DB00073BD70B505002800C0B2042806D007287E
:109DC00015D00A2829D1FFF7B0FF26E013219A48C1
:109DD000008876DF0600082E08D03400002C05D05D
:109DE000814A40F2C921200000F04CF915E0924868
:109DF00000884FF6FF7188420ED1904801F02DFD8A
:109E00000600082E08D03400002C05D0764A40F217
:109E1000D121200000F036F9FFE770BD2DE9F047B1
:109E200092B006255920ADF8000018260027764C80
:109E3000A0463A0031004046FFF720FB029418206C
:109E4000ADF804005FF03C085FF0000903AC4A463F
:109E500041462000FFF712FB00208DF80C008DF822
:109E60000F5068460C90002103A800F0FAFE8246CD
:109E70005446002C05D05C4A4FF43D71200000F0A0
:109E800001F910240026684FB846320021004046F0
:109E9000FFF7F4FA03203870002078600020387251
:109EA000A02078810020B88112B0BDE8F0877CB591
:109EB0006349032001F09AFF05002C00002C05D017
:109EC000494A40F20B31200000F0DCF869460020DE
:109ED00001F014F806003400002C05D0424A40F28C
:109EE0000E31200000F0CEF873BD38B500252C00EF
:109EF000002C05D03C4A40F21631200000F0C2F898
:109F000031BD38B504003EDF05002000C0B2012895
:109F100001D120BF05E0002000F04AFAFFF7E2FA85
:109F2000FEE731BD38B501213F4873DF05002C0045
:109F3000002C05D02C4A40F23931200000F0A2F864
:109F400031BD10B5002000F0B1FA314C2070C0B224
:109F5000002804D02A49002000F0C1FA2070012016
:109F600000F0A4FA2B4C2070C0B2002804D0254980
:109F7000012000F0B4FA207010BD38B50124314D35
:109F8000314800F096F8288047F6707000F091F89C
:109F90002880B5F90000002802D1204800F082F89E
:109FA00001F0C2FF2000C0B2002803D0FFF76BFB16
:109FB0000400F7E7FFF7F8FA184800F073F80220FA
:109FC00000F074FA050001F0AFFF2800C0B20028CD
:109FD00004D0022000F06AFA0500F6E731BD000067
:109FE00000050040E42B02009428020036240020E3
:109FF000A0D60100DC230020381F0020B81F00205D
:10A00000D8230020122400205822002033240020CE
:10A01000342400203524002014240020D0450800DA
:10A020009098040040AD0300EC220020842300201F
:10A03000EC2B0200F42B0200881B0020A81D00203E
:10A04000B39D0100162400208080FFFF00F1010372
:10A05000810704D010F8011B820781B1FAD1026890
:10A06000A2F10131914311F0803104BF50F8042F67
:10A07000F6E709BAB1FA81F100EBD100401CC01A31
:10A080007047FEE77FB504000D0016002800ADF80C
:10A090000000019602946A46002144F2010002F099
:10A0A000CDF97FBD0021814202DA00BF491CFAE7E9
:10A0B00070470100080000B280115FF0FF3210FB12
:10A0C00002F000B27047FEE7F8B500205B49086077
:10A0D00000205B49088000205A49087000205A4936
:10A0E000087000205949087002F060FD0600340035
:10A0F000002C04D0564A31212000FFF7C3FF0FF295
:10A10000E9052A000121534802F076FD07003C00D2
:10A11000002C04D04E4A34212000FFF7B3FFF1BDDC
:10A1200070B50500002229004A48006802F083FD4E
:10A1300006003400002C04D0454A41212000FFF7DE
:10A14000A1FF70BDF8B505004FF4004000FB05F01D
:10A150004FF47A71B0FBF1F63F4805603D48006866
:10A1600002F091FD07003C00002C04D0384A512138
:10A170002000FFF787FF3000FFF7D2FFF1BD02009C
:10A1800092B24FF47A714A4333490968B2FBF1F154
:10A190002B4A118000212C4A117070472A490878F7
:10A1A00000220A70C0B27047010089B22A4A1268C0
:10A1B000B1FBF2F1294A11600021244A1170704765
:10A1C0002249087800220A70C0B2704724481B490F
:10A1D000086000201B49087070471A49087800225F
:10A1E0000A70C0B270470000154A1188002908D0D3
:10A1F0001188491E11801188002902D10121124ABB
:10A200001170164A1168002908D01168491E1160A2
:10A210001168002902D101210C4A1170074A116806
:10A2200001290ADB13680C4909685B1A136011687D
:10A23000012902DA0121034A11707047FC23002032
:10A240001A2400204224002043240020442400201B
:10A25000482802007C2C0200002400200424002056
:10A26000E85C060001005FF0A04070472DE9F14175
:10A2700081B00E0017009846089C099D01A8FFF7C1
:10A28000F1FF3100C9B23A00D2B251EA420142466E
:10A29000D2B251EA82012200D2B251EA02212A004E
:10A2A000D2B251EA0241019A00EB8202C2F80017D1
:10A2B000BDE8F3813EB504000D00002001900020B0
:10A2C00000902B00DBB2002200212000FFF7CEFF20
:10A2D00037BD11B581B001A8FFF7C4FF040001210B
:10A2E00001988140200000F02CF813BD11B581B019
:10A2F00001A8FFF7B7FF0400012101988140200069
:10A3000000F022F813BD38B505000C00002C03D175
:10A310002800FFF7EBFF02E02800FFF7DAFF31BD6E
:10A3200011B581B001A8FFF79DFF0400200000F0E7
:10A3300005F80199C84010F0010016BDD0F81005CD
:10A340007047C0F808157047C0F80C15704780B505
:10A3500000204949087000204849087000204849F9
:10A36000087003210E20FFF7A5FF00F001F801BDE2
:10A3700080B500F02DF84149087042490870C0B21C
:10A38000002802D101203C49087001BD10B504002D
:10A390002000C0B2002804D001210720FFF7B3FF3E
:10A3A00003E000210720FFF7AEFF3748047010BD1F
:10A3B00010B504002000C0B2002804D001210D20F7
:10A3C000FFF7A1FF03E000210D20FFF79CFF10BD68
:10A3D00038B501250024200080B205280BDA0620BC
:10A3E000FFF79EFF90F00100284005000A20FFF7CC
:10A3F00059FE641CEFE70620FFF792FF90F0010082
:10A400002840C0B2002801D0012000E00020C0B2E6
:10A4100032BD1B480078704780B50E20FFF780FFE3
:10A4200090F0010F03D001201549087002E00020D0
:10A430001349087012490878002801D000200870DC
:10A4400001BD0E480078704700200C490870704725
:10A4500010B50E49086800280BD000200860FFF7EF
:10A46000B7FF04002000C0B2002802D00120034939
:10A47000087010BD000000002D2400202B240020B7
:10A480002E2400202C2400202F2400207C6100405A
:10A4900080B502F07CFC01F03EFE01BD80B502F00B
:10A4A00076FCC046C04601F064FE01BD38B504002C
:10A4B00001252000C0B2002803D0022804D006D312
:10A4C00008E002F07DFC07E001F019FF04E001F074
:10A4D000D3FE01E0002005002800C0B232BD70B5F7
:10A4E00004000D0001262000C0B2002803D002287D
:10A4F00005D008D30BE0280002F052FC08E0280049
:10A5000001F09AFE04E0280001F0A8FE00E000201F
:10A51000C0B270BD02000A70100080B2000A48701C
:10A52000022070472DE9FC4705000E001700380097
:10A5300080B231880931884201D20C2032E068466D
:10A540006DDF0400002C01D020002BE008203188B2
:10A5500068543088401C30801B2031886854308813
:10A56000401C30805FF006080DF10109308805EBD2
:10A57000000A42464946504600F0C0FB3088801D24
:10A5800030809DF80000C0B24008002803D10020B0
:10A590003188685402E00120318868543088401CBA
:10A5A00030800020BDE8F687FCB404000D00207860
:10A5B000012804D16078002801D107205FE018004D
:10A5C00080B21188891C88420BD3207801280AD1D7
:10A5D000180080B21188667816FA81F1891C8842C9
:10A5E00001D20C204BE0190089B21088091A8E1E86
:10A5F000ADF80060694610882844801C7DDF0100AA
:10A60000002901D008003AE02078022807D1300064
:10A61000BDF8007080B2B84201D3092711E00827C5
:10A62000207801280BD1300094F801C080B21FFAC5
:10A630008CFC604503D36078ADF8000001E0ADF814
:10A640000060BDF80000FF2801D30C2017E0BDF822
:10A650000000401CB2F800C005F80C001088401C37
:10A66000108010882F541088401C1080B2F800C051
:10A67000BDF8000010EB0C0CA2F800C00020F6BCE6
:10A680007047F8B505000E001700380080B2318819
:10A69000091D884201D20C201EE0684679DF0400C3
:10A6A000002C01D0200017E0032031886854308846
:10A6B000401C30801920318868543088401C30801C
:10A6C000308805EB0001BDF80000FFF723FF31885B
:10A6D00051FA80F030800020F2BD30B40400180040
:10A6E00080B21588ED1CA84201D20C2011E0022096
:10A6F000158848551088401C108001201588485541
:10A700001088401C108010880C541088401C108049
:10A71000002030BC704730B40400180080B21588A7
:10A72000ED1CA84201D20C2011E0022015884855EA
:10A730001088401C10800A20158848551088401C3D
:10A74000108010880C541088401C1080002030BCF1
:10A7500070472DE9FE4F06000F0094461C00DDF8FF
:10A7600030E00D9D5FF00008BEF800905FF0000A39
:10A770003088824550DA706850F82A100191002222
:10A78000694601A864DF0300002B01D018005BE0DC
:10A790009DF800006146C9B288423AD14046C0B235
:10A7A000002802D05FF0000B01E05FF0020B2800F0
:10A7B00080B2BEF800109DF8002012FA81F151FA23
:10A7C0008BF1884201DA0C203EE04046C0B20028FE
:10A7D0000ED1BEF80000401CAEF80000BEF800002C
:10A7E0002754BEF80000401CAEF80000012080464F
:10A7F000BEF8000004EB0002694601A864DF0028EF
:10A8000022D1BEF800109DF8002051FA82F1AEF876
:10A8100000101AF1010AABE74046C0B2002812D07E
:10A82000BEF80010B1EB0901491EADF80210BDF8E9
:10A830000200B0F5807F01DB0C2005E0BDF80200CE
:10A84000494689B260540020BDE8FE8F2DE9FC47DF
:10A8500006000F0090469946DDF828A00B9D2800C1
:10A8600080B20190CDF800A04B4602223900C9B257
:10A870003000FFF76EFF0400002C01D0200011E033
:10A88000280080B20190CDF800A04B46102241462E
:10A89000C9B23000FFF75DFF0100002901D00800B8
:10A8A00000E00020BDE8F68701000888062809DBE3
:10A8B00040F681400A88824206DB0A884FF6FF7321
:10A8C0009A4201D007201BE04A88062A07DB4A8803
:10A8D000824206DB48884FF6FF72904201D0072083
:10A8E0000EE04FF6FF700A88824208D04A88824202
:10A8F00005D048880A88904201D2072000E0002055
:10A9000070472DE9F04105000E00170098464046BB
:10A9100080B23988891D884201D20C2028E02800A5
:10A92000FFF7C2FF0400002C01D0200020E005202A
:10A93000398870543888401C388012203988705407
:10A940003888401C3880388806EB00012888FFF7DB
:10A95000E1FD398851FA80F03880388806EB000133
:10A960006888FFF7D7FD398851FA80F038800020D9
:10A97000BDE8F0812DE9F84F04000D0016001F001E
:10A98000B4F8048018F10208380080B2318818FA4F
:10A9900081F1891C884201D20C2034E0B8F1FF0F0C
:10A9A00001D30C202FE018F1010031886854308861
:10A9B000401C3080FF20318868543088401C308033
:10A9C000308805EB00012088FFF7A4FD318851FA9B
:10A9D00080F03080A088002814D0A068002801D121
:10A9E000072010E0B4F80490D4F808A0308805EBF4
:10A9F000000B4A465146584600F080F93188A0883D
:10AA0000411831800020BDE8F28F2DE9FE4F04008F
:10AA10000D001600A06A002801D107204DE0002794
:10AA2000380094F82C10C0B2884245D2A16A3A008E
:10AA3000D2B20C20424301EB0208B8F8049019F19D
:10AA40000209B9F1FF0F01D30C2036E019F1010022
:10AA5000318868543088401C308016203188685412
:10AA60003088401C3080308805EB0001B8F80000C9
:10AA7000FFF750FD318851FA80F03080B8F80400BB
:10AA8000002817D0D8F80800002801D1072014E0CA
:10AA9000B8F804000090D8F808A0308805EB000B47
:10AAA000009A5146584600F029F93188B8F8040058
:10AAB000411831807F1CB3E70020BDE8FE8F2DE9EF
:10AAC000FC4105000E0017000024B7F800800020AC
:10AAD000388095F82D0000280AD0424692B23900FD
:10AAE0003000FFF71FFD0400002C01D02000A6E07D
:10AAF000A87800280AD0424692B239003000FFF709
:10AB0000C0FD0400002C01D0200098E0E878002867
:10AB10000DD043469BB23A00310095F9030040B294
:10AB2000FFF7DBFD0400002C01D0200087E06868FF
:10AB300000280DD043469BB23A003100686890F976
:10AB40000000FFF7E8FD0400002C01D0200076E0B3
:10AB5000288900280FD0404680B20190009733002A
:10AB60000622022115F10800FFF770FE0400002CF8
:10AB700001D0200063E0288A00280FD0404680B230
:10AB80000190009733000722032115F11000FFF711
:10AB90005DFE0400002C01D0200050E0288B00282E
:10ABA0000FD0404680B20190009733001522142147
:10ABB00015F11800FFF74AFE0400002C01D0200018
:10ABC0003DE0286A00280BD043469BB23A00310092
:10ABD000286AFFF796FE0400002C01D020002EE02A
:10ABE000686A00280BD043469BB23A003100686A7D
:10ABF000FFF7C0FE0400002C01D020001FE095F8F4
:10AC00002C0000280BD043469BB23A0031002800AC
:10AC1000FFF7FBFE0400002C01D020000FE0287895
:10AC200000280BD043469BB23A0031002800FFF7C2
:10AC3000BBFC0400002C01D0200000E02000BDE897
:10AC4000F6810100C878400701D4072000E0002009
:10AC500070470100C878002801D0072000E00020DC
:10AC600070472DE9F84191B005000E001F20ADF8A6
:10AC700002001F20ADF80000002D15D02800FFF7BE
:10AC8000E0FF0700002F01D0380034E00DF1020290
:10AC900009A92800FFF713FF0400002C01D02000B1
:10ACA00029E00DF1240804E05FF000080020ADF871
:10ACB0000200002E13D03000FFF7CBFF0700002F5B
:10ACC00001D0380017E06A4601A93000FFF7F7FE0F
:10ACD0000400002C01D020000DE001AA03E00022B6
:10ACE0000020ADF80000BDF80030DBB2BDF8021066
:10ACF000C9B2404672DF12B0BDE8F08162B38B0783
:10AD000008D0521E11F8013B00F8013B00F02480EE
:10AD10008B07F6D1830740F0208000BF103A07D39D
:10AD200030B4B1E83810103AA0E83810F9D230BC8D
:10AD3000530724BFB1E80810A0E8081044BF51F839
:10AD4000043B40F8043BD20724BF31F8022B20F823
:10AD5000022B44BF0B7803707047121F17D35B00A0
:10AD600009D151F8043B20F8023B1B0C121F20F8BC
:10AD7000023BF6D20BE051F8043B00F8013B1B0A02
:10AD800020F8023B1B0C121F00F8013BF3D238BF26
:10AD9000121D521E24BF11F8013B00F8013BF8D8E8
:10ADA0007047FEE738B501220021002001F061F86C
:10ADB0000500002D03D0072D01D0280018E0072240
:10ADC0000221012001F055F80400002C03D0072CCB
:10ADD00001D020000CE004220221002001F049F8FB
:10ADE0000100002903D0072901D0080000E000205D
:10ADF00032BD38B501220221002001F03AF80500E9
:10AE0000002D03D0072D01D0280018E007220221D1
:10AE1000012001F02EF80400002C03D0072C01D0F3
:10AE200020000CE00A220021002001F022F801009D
:10AE3000002903D0072901D0080000E0002032BD1E
:10AE400010B50400012000F054FD002802D00220BB
:10AE5000207009E0002000F04CFD002802D00B20FB
:10AE6000207001E00020207010BD10B5002001F01E
:10AE700051F80400002C03D0062C01D020000AE079
:10AE8000012001F047F80100002903D0062901D074
:10AE9000080000E0002010BDF8B505000E0028886D
:10AEA000102802D0112814D027E01E4F386800283F
:10AEB0000BD1FFF777FF0400002C06D01A49086871
:10AEC000002802D02000096888473868401C386094
:10AED00013E014480168491E0160006800280BD186
:10AEE000FFF787FF0400002C06D00F4908680028F0
:10AEF00002D0200009688847FFE7F1BD70B5050062
:10AF00000C00002608480560002C02D02000FFF746
:10AF100097FF04480068002802D1FFF76AFF060087
:10AF2000300070BDC4230020C0230020012210F097
:10AF30001F018A40DFF8941303005BB25B0941F8FC
:10AF400023207047012210F01F018A40DFF8801390
:10AF500003005BB25B0941F82320704710B4020084
:10AF600052B2002A0AD54A01DFF86833040064B2FD
:10AF700014F00F04234403F8042C05E04A01DFF821
:10AF80005833040064B21A5510BC7047010049B22E
:10AF9000002909D5DFF83C1340B210F00F00084437
:10AFA00010F8040C400904E0DFF82C1340B2085CF0
:10AFB00040097047806870470100080040B22028AF
:10AFC00005DADFF81803C84010F001000EE00800B1
:10AFD00040B2402809DA012020398840002801D0F9
:10AFE000012000E00020C0B200E001207047010015
:10AFF000082901D3002008E0002903D0012901D04D
:10B00000042901D1002000E00120704710B50400A0
:10B01000200040B2FFF7D0FF002802D142F2010029
:10B0200024E0200040B2FFF7B1FFFFF7E0FF002867
:10B0300002D142F2020019E0DFF8A4128868002869
:10B040000FD0200040B2400951F82020012314F015
:10B050001F0083401A43200040B2400941F82020DD
:10B0600003E0200040B2FFF761FF002010BD10B5E3
:10B070000400200040B2FFF79FFF002802D142F2F7
:10B08000010018E09649886800280FD0200040B2DF
:10B09000400951F82020012314F01F0083409A43F7
:10B0A000200040B2400941F8202003E0200040B2D7
:10B0B000FFF748FF002010BD38B504000D00200048
:10B0C00040B2FFF779FF002802D142F201000DE003
:10B0D0002800FFF78CFF002802D142F2020005E0B1
:10B0E0002900200040B2FFF739FF002032BD7FB5B4
:10B0F00004007C49684601F0EEFE6846FFF75AFFFF
:10B10000002810D06846FFF755FF05002E686968D3
:10B110002000C0B2B047002803D0684601F0E5FE29
:10B12000EBE7112000E0002004B070BD7FB5040003
:10B130006D49684601F0CFFE6846FFF73BFF0028E7
:10B140000CD06846FFF736FF05002E6869682000BE
:10B15000C0B2B047684601F0C8FEEDE77FBD38B524
:10B160001620FFF753FF05002C00002C04D05F4A87
:10B1700099212000FEF786FF31BD38B51620FFF774
:10B1800076FF05002C00002C04D0584AA521200091
:10B19000FEF778FF31BD70B507211620FFF78CFF51
:10B1A00005002C00002C04D0504AB8212000FEF7E6
:10B1B00069FF07211520FFF77FFF06003400002CF0
:10B1C00004D04A4ABA212000FEF75CFF70BD7CB56E
:10B1D000474D2878002801D0082026E0454E012060
:10B1E00030700020FFF783FF112801D100201CE000
:10B1F0000020FFF79BFF4048006800903F496846E9
:10B2000010DF0400002C01D020000EE00120287087
:10B210000020307000203A490870FFF7BCFFFFF7AC
:10B220009EFF0120FFF782FF002076BD70B5304DF4
:10B230002878002801D108201CE02E4E0120307013
:10B240000120FFF754FF112801D1002012E0022055
:10B25000FFF76CFF11DF0400002C01D0200009E093
:10B260000020287000203070FFF787FF0320FFF7D1
:10B270005DFF002070BD80B51E480078002801D118
:10B28000082008E01A480078002802D0FFF7CEFF17
:10B2900001E0FFF79CFF02BD1548007870473EB5FE
:10B2A0001849684601F017FE6846FFF783FE00283C
:10B2B0000AD06846FFF77EFE040025686068A8474C
:10B2C000684601F012FEEFE737BD000000E100E044
:10B2D00080E100E018ED00E000E400E0FC06FFBDC6
:10B2E0001C2300206C2B0200782B02004427020054
:10B2F0003724002039240020682C02003DC40100BE
:10B3000038240020842B020080B5FFF7C8FF01BD60
:10B31000806870470100002901D10E2003E05948E0
:10B3200000680860002070472DE9FE4306000F000A
:10B330003800FFF7EFFF0400002C01D0200066E08A
:10B340005FF00C085FF000096D464A464146280050
:10B35000FEF794F88DF8006001208DF802000320BC
:10B36000ADF804003A686946202069DF0500002D29
:10B370005FF00C085FF000096C464A464146200029
:10B38000FEF77CF801208DF800003A6869464020FD
:10B3900069DF0400002C5FF00C085FF000096D46C7
:10B3A0004A4641462800FEF769F800208DF8000063
:10B3B0003A686946012069DF0500002D5FF00C083E
:10B3C0005FF000096C464A4641462000FEF756F8F9
:10B3D0004FF4B06000903A686946A12069DF04002C
:10B3E000002C0C255FF00008E9464246290048463B
:10B3F000FEF744F89DF8000050F001008DF80000C1
:10B400003A686946A02069DF010000290020BDE8F4
:10B41000FE8301000A68080060DF0B689342002881
:10B4200070472DE9F8418FB005002C20ADF80000E1
:10B43000694604A861DF0400002C02D0052C17D156
:10B440001CE004AE104901A801F045FD01A8FFF77A
:10B450005FFF0028E9D001A8FFF75AFF0700D7F8DF
:10B46000008079683000C04701A801F03EFDEDE79B
:10B47000064A40F221112000FEF704FE10B0BDE89C
:10B48000F08100006C2C0200902B020028260200A4
:10B4900090F8D600704701000022062A06D2885C88
:10B4A000002801D0012002E0521CF6E7002070477E
:10B4B000C0B2401C052190FBF1F201FB1200C0B2AA
:10B4C0007047CA7B012A02D18A88A0F8C820704739
:10B4D00070B505000E00002085F8D400B088B5F8DE
:10B4E000C810884211D1287900280ED101212800E6
:10B4F00000F0CAF80400002C07D0D5F8D0000028CE
:10B5000003D02000D5F8D010884770BD70B5050075
:10B510000E00307A002812D1E878FFF7C9FF010049
:10B52000C9B2280000F0B0F80400002C07D0D5F80C
:10B53000D000002803D02000D5F8D010884770BD77
:10B5400080B50020FDF7A0FE02BD38B504000D0057
:10B5500014F12600FFF79FFF01002800C0B2012868
:10B5600006D021D3032815D00BD3042817D01BE015
:10B57000A079002805D00800C0B2002801D0012021
:10B5800013E0E079002805D00800C0B2002801D0FF
:10B5900002200AE0207A002801D0032005E0607A2A
:10B5A000002801D0042000E0002032BD020001206C
:10B5B000907012F1250048600120087000208881F9
:10B5C000002048810020704702000220907012F194
:10B5D000250048600120087010698881D068488182
:10B5E0000020704770B505000E0068697081A86979
:10B5F000B081687900281AD095F8D400002816D1B7
:10B600002800FFF745FF002811D0022030720420E7
:10B6100085F83300002115F13000FFF722FB04000C
:10B62000002C01D0200005E00520A87001E00320D7
:10B63000A870002070BD70B505000E00E86970812B
:10B64000286AB081687900281AD095F8D4000028BB
:10B6500016D12800FFF71CFF002811D002203072FD
:10B66000042085F83300002115F13000FFF7F9FAC6
:10B670000400002C01D0200005E00620A87001E0A5
:10B680000420A870002070BD2DE9F84384B00500A7
:10B690000E002878002801D10820A1E0EE70FFF705
:10B6A0004FFF002803D001206870002098E0072792
:10B6B0005FF0000815F12509424639004846FDF7BC
:10B6C000DDFEA879002802D0E87801280BD0E879BF
:10B6D000002802D0E878012805D0E879002811D0A8
:10B6E000E87802280ED1D5F8CC00002807D0012038
:10B6F00085F82C000820D5F8CC10884702E00020FF
:10B7000085F82C003100C9B22800FFF71EFFE87051
:10B71000D5F8CC00002817D0E878032802D0E878C4
:10B72000042811D1687900280ED095F8D40000289B
:10B730000AD1002085F8D600012085F8D500072021
:10B74000D5F8CC10884702E0002085F8D5001027F6
:10B750005FF00008E946424639004846FDF78EFE94
:10B7600000208DF8000000208DF80800E8780028FF
:10B770001ED002280AD003D3042813D00CD31AE019
:10B7800069462800FFF712FF040014E0694628000C
:10B79000FFF71AFF04000EE069462800FFF722FFBA
:10B7A000040008E069462800FFF745FF040002E0B6
:10B7B0000020A870FFE7E878002808D095F824104A
:10B7C000684673DF0400002C01D0200008E0D5F8A3
:10B7D000CC00002803D0A878D5F8CC1088470020EA
:10B7E00005B0BDE8F08370B504000D002E00208880
:10B7F000102804D0112807D01B280AD00EE0210001
:10B800003000FFF75EFE09E021003000FFF760FE28
:10B8100004E021003000FFF779FEFFE770BDF8B5C6
:10B8200005000E0037002800801E012814D8787803
:10B83000002810D000207870F9783800FFF724FF36
:10B840000400002C07D0D7F8D000002803D0200037
:10B85000D7F8D0108847FFE7F1BD70B5060074DF58
:10B86000012086F8D400002086F8D600062086F84D
:10B870003300002116F13000FFF7F3F90500002D29
:10B8800001D028000FE0F1783000FFF7FDFE040042
:10B89000002C07D0D6F8D000002803D02000D6F81E
:10B8A000D0108847002070BD01005FF0A0407047B5
:10B8B00011B581B00C0001A8FFF7F6FF019900EB6C
:10B8C0008101D1F8001731F44031019A00EB820276
:10B8D000C2F80017019900EB8101D1F8001722008E
:10B8E000D2B251EA0241019A00EB8202C2F800177B
:10B8F00013BD10B50400200001F0E4FB10BD2DE9DC
:10B90000F04705000E0000275FF000092800C0B2D4
:10B9100001F0E7FB8046B8F1020F4FD23000C0B211
:10B9200000282AD0022841D048D2DFF8AC95032065
:10B9300000FB08F019F800000700032000FB08F0E6
:10B940004844407800280ED0DFF890A552464FF4C6
:10B950000041DFF88C05006801F06DF90400002C4F
:10B9600001D18AF80050032000FB08F04844807899
:10B97000DFF8701501F8080020E0DFF864050068C2
:10B9800001F081F9DFF85005DFF8581511F80810BB
:10B99000032202FB08F202449278914205D103216E
:10B9A00001FB08F108448078070007E0DFF828056C
:10B9B000032101FB08F10844407807003800C0B2B9
:10B9C000002808D0DFF820150868002803D03800C8
:10B9D000C0B209688847BDE8F08710B504000221AD
:10B9E0002078FFF78CFF10BD10B5DFF80005007858
:10B9F000002809D00024032C08D2022C02D02000F9
:10BA0000C046C046641CF6E701F034FB10BD2DE9CA
:10BA1000F041060000240025DFF8D47438780028AF
:10BA200003D000203870FFF7DFFF3000C0B20028DD
:10BA300037D002283BD03AD3042800F0A8806ED338
:10BA4000062800F01281C0F0DB80082800F0218178
:10BA5000C0F019810A2800F03881C0F028810C2834
:10BA600000F04F81C0F03F810E2800F04F81C0F000
:10BA70004D81102800F04A81C0F04881122800F062
:10BA80007C81C0F04381142800F08481C0F07A8169
:10BA9000162800F09281C0F08581172800F08D8172
:10BAA00090E1FFF7A1FFDFF84C0406708AE1002067
:10BAB00001F0C9FA00280CD00020C046C046300072
:10BAC000C0B2022802D14FF4E1650DE04FF47A656F
:10BAD0000AE0002001F0C6FA3000C0B2022801D10D
:10BAE000C82501E04FF4C875DFF80804067000228D
:10BAF00017004FF40040A0FB050110F5FA7051F15A
:10BB000000014FF47A72002301F002FB01003A00B9
:10BB1000DFF8E403006801F08EF8040052E1002031
:10BB200001F091FA00280CD00020C046C046300039
:10BB3000C0B2032802D14FF448750DE04FF47A6586
:10BB40000AE0002001F08EFA3000C0B2032801D1D3
:10BB5000C82501E04FF4C875DFF89803067000228D
:10BB600017004FF40040A0FB050110F5FA7051F1E9
:10BB700000014FF47A72002301F0CAFA01003A0082
:10BB8000DFF87403006801F056F804001AE10020A1
:10BB900001F059FA00280CD00020C046C046300001
:10BBA000C0B2042802D14FF47A650EE04FF47A65F2
:10BBB0000BE0002001F056FA3000C0B2042802D198
:10BBC0004FF4C87501E04FF4C875DFF8280306701C
:10BBD000002217004FF40040A0FB050110F5FA7099
:10BBE00051F100014FF47A72002301F091FA010043
:10BBF0003A00DFF80403006801F01DF80400E1E0FA
:10BC0000002001F020FA00280BD00020C046C046DA
:10BC10003000C0B2052801D1C8250DE04FF47A6587
:10BC20000AE0002001F01EFA3000C0B2052801D160
:10BC3000C82501E04FF4C875AE4806700022170011
:10BC40004FF40040A0FB050110F5FA7051F100011E
:10BC50004FF47A72002301F05BFA01003A00A64823
:10BC6000006800F0E8FF0400ACE0002001F016FAE4
:10BC7000A0480670002240F6CD419F48006800F0C1
:10BC8000DAFF04009EE0002001F0ECF9994806700C
:10BC900098E001203870012001F000FA002240F6FF
:10BCA000CD419548006800F0C6FF04008AE00120FD
:10BCB0003870012001F0F2F900224FF480418E48E3
:10BCC000006800F0B8FF04007CE00120387001201B
:10BCD00001F0E4F9002240F6CD418748006800F009
:10BCE000AAFF04006EE001203870012001F0D6F9AF
:10BCF00000224FF480418048006800F09CFF04005F
:10BD000060E001F0C1F97B4806705BE07B4F38686A
:10BD100000F0B9FF04003000C0B2D0F111000500FE
:10BD2000002D23D0002C21D1022D18D300229046C3
:10BD3000290089B2C82041434FF4004080FB010133
:10BD400010F5FA7051F100014FF47A72002301F0FE
:10BD5000DFF901004246386800F06DFF0400022060
:10BD600001F080F901206149087005E00220C04619
:10BD7000C04600205D49087024E0FFF735FE5D48AD
:10BD800006701FE0FFF730FE002001F06BF9594804
:10BD9000067017E0FFF728FE012001F063F955480F
:10BDA00006700FE0FFF720FE002001F05BF9012094
:10BDB00001F058F94F48067004E001F065F94D486C
:10BDC0000670FFE72000BDE8F08110B504004C4884
:10BDD0000078C00703D547480078FFF718FE10BD6C
:10BDE00010B50400022001F059F910BDF8B50500A6
:10BDF0000E000024424805603B480660A80722D593
:10BE00000027022F09D2002C07D10122012138007E
:10BE100000F02FF804007F1CF3E7002C06D140F25D
:10BE200066620221374801F012FB0400002C02D1A7
:10BE300001F050FB0400002C05D1334A00212848B2
:10BE400000F0DAFE0400E80701D501F02EF9002C1D
:10BE500005D12E4A0021284800F0CEFE0400002C17
:10BE600005D12B4A0121254800F0C6FE0400200020
:10BE7000F2BD30B403000020022B29D21400E4B23A
:10BE8000012C07D10C00E4B2012C02D113F10E02F7
:10BE900000E000220C00E4B2002C0FD0022C06D0EF
:10BEA00013D20D4C032505FB03F5625512E00A4C35
:10BEB000032505FB03F52C4462700BE0064C0325BB
:10BEC00005FB03F52C44A27004E00724200001E0E8
:10BED0000724200030BC70475C230020252400206C
:10BEE000502C020008240020BC2300202424002021
:10BEF0002324002022240020482C02004C2C020085
:10BF0000B8230020A42A0200DBB90100CBBD010048
:10BF1000E1BD010010B50400200001F0F1F803219B
:10BF2000FFF7C6FC002010BD2DE9F84F98B0192589
:10BF3000DFF8C4643000FEF7B5F80024DFF8BC0475
:10BF4000844203DA00F0DBF9641CF7E700F0D7F96C
:10BF5000002004900DF1100A0020CAF8040000200F
:10BF6000CAF808005FF0000BBBF1050F22DA00F001
:10BF7000C6F9DFF88C040499B0F900205FF0FF33B4
:10BF800012FB03110491DAF80410B0F902205FF0FB
:10BF9000FF3312FB0311CAF80410DAF80810B0F9E5
:10BFA00004005FF0FF3210FB0210CAF808001BF11A
:10BFB000010BD9E70498052190FBF1F00490DAF821
:10BFC0000400052190FBF1F0CAF80400DAF808003B
:10BFD000052190FBF1F0CAF8080023208DF820001D
:10BFE00008AF85207870DFF80884002000900223D5
:10BFF00008AA2900C9B2404601F080FD0790079CBD
:10C00000002C05D0DFF8EC236E212000FEF73AF873
:10C010003000FEF747F800F072F90020019001AC03
:10C02000002060600020A0605FF00009B9F1050FFA
:10C030001EDA00F064F9DFF8C8030199B0F90020B6
:10C040005FF0FF3312FB031101916168B0F9022028
:10C050005FF0FF3312FB03116160A168B0F90400C7
:10C060005FF0FF3210FB0210A06019F10109DDE75B
:10C070000198052190FBF1F001906068052190FB8B
:10C08000F1F06060A068052190FBF1F0A060DFF89E
:10C090007413019A0498121A0A606268DAF80400AC
:10C0A000121A4A60A268DAF80800121A8A60202080
:10C0B0008DF820000020787000200090022308AA4C
:10C0C0002900C9B2404601F019FD82465446002CB1
:10C0D00004D0C84A88212000FDF7D4FF23208DF822
:10C0E00020000120787000200090022308AA290077
:10C0F000C9B2404601F002FD07003C00002C04D00C
:10C10000BC4A8E212000FDF7BDFF3000FDF7CAFFBD
:10C1100019B0BDE8F08F7FB56846BB491022FEF725
:10C12000FDFDB74800210180002141800021818070
:10C130000020B64908700020B5490870AC4D0023B6
:10C1400000226946280001F01EFB06003400002C86
:10C1500004D0A84AAA212000FDF794FF280001F08E
:10C1600061FBC046C04600F004F8A348FDF79AFF03
:10C170007FBD2DE9FE43192521208DF8040001AE75
:10C18000002070709A4F00200090022301AA29001D
:10C19000C9B2380001F0B2FC81464C46002C04D0F4
:10C1A000944ADD212000FDF76DFF22208DF8040068
:10C1B0000020707000200090022301AA2900C9B25B
:10C1C000380001F09BFC80464446002C04D0894A8C
:10C1D000E3212000FDF756FF23208DF804001020F6
:10C1E000707000200090022301AA2900C9B2380013
:10C1F00001F084FC81464C46002C04D07D4AE921A4
:10C200002000FDF73FFF20208DF8040037207070DC
:10C2100000200090022301AA2900C9B2380001F0D1
:10C220006DFC06003400002C04D0724AEF2120007F
:10C23000FDF728FFBDE8F7830100744A1078002855
:10C240000AD06F4803880B8043884B8080888880A1
:10C2500000201070012000E00020704701006C4AAF
:10C260001078002806D06B480088088000201070E5
:10C27000012000E0002070477FB502208DF8080003
:10C280000F208DF80A00D5208DF80B00584D0020A6
:10C29000009002230DF10A024021280001F02EFC3B
:10C2A00006003400002C05D0524A40F2251120002F
:10C2B000FDF7E8FE00F05AF80028FBD002200190BC
:10C2C00003A80090012302AA4021280001F036FCB7
:10C2D00005002C00002C05D0464A4FF49571200033
:10C2E000FDF7D0FE4B49BDF80C0008800A884FF6D8
:10C2F000E07002400A800120454908707FBD38B5D2
:10C3000088B0A8208DF8080000F051F80028FBD074
:10C310000620019005A80090012302AA19213448A3
:10C3200001F00CFC05002C00002C05D0314A40F235
:10C3300041112000FDF7A6FEBDF9140000B2ADF8D2
:10C340000C0005A803A9B0F902204A80B0F9040046
:10C3500088802B48BDF80C2002804A88428089885A
:10C36000818001202949087009B030BD3EB5042004
:10C370008DF809000120019002A8009001230DF121
:10C38000090240211A4801F0D9FB05002C00002CBD
:10C3900005D0184A40F25B112000FDF773FE9DF8AE
:10C3A0000800000601D5012000E000203EBD3EB59A
:10C3B00027208DF809000120019002A80090012398
:10C3C0000DF1090219210A4801F0B8FB05002C0003
:10C3D000002C05D0074A4FF4B8712000FDF752FE3B
:10C3E0009DF80800000701D5012000E000203EBDB7
:10C3F000D42B0200FC270200D0450800A0860100D3
:10C400007C23002034230020B42A020030240020A2
:10C410003124002010240020BFF34F8F05490A6803
:10C4200012F4E062044802430A60BFF34F8F00BF7A
:10C43000FDE700BF0CED00E00400FA0570B5040054
:10C440000D0016002000401E0AD04FF48051401A03
:10C4500007D04FF44051401A06D0401E02D005E0EC
:10C4600004E003E0300001E03000FFE7034800682B
:10C47000C00700D500BEFFF7CFFF70BDF0ED00E0B4
:10C48000012210F01F018A40DFF8281803005BB278
:10C490005B0941F823207047012210F01F018A40F8
:10C4A000DFF8141803005BB25B0941F823207047E2
:10C4B000012210F01F018A40DFF8001803005BB270
:10C4C0005B0941F823207047012210F01F018A40C8
:10C4D000DFF8EC1703005BB25B0941F823207047DB
:10C4E00010B4020052B2002A0AD54A01DFF8D4374C
:10C4F000040064B214F00F04234403F8042C05E094
:10C500004A01DFF8C437040064B21A5510BC704702
:10C51000DFF8B81700283ED0DFF8B427126800BF54
:10C5200000BF00BF00BF00BF00BF00BF00BF8A4206
:10C530002FD000BF00BF00BF00BF00BF00BF00BFC3
:10C5400000BF00BF00BF00BF00BF00BF00BF00BFF3
:10C5500000BF00BF00BF00BF00BF00BF00BF00BFE3
:10C5600000BF00BF00BF00BF00BF00BF00BF00BFD3
:10C5700000BF00BF00BF00BF00BF00BF00BF00BFC3
:10C5800000BF00BF00BF00BF00BF00BF00BF00BFB3
:10C5900000BF401EC3D1704710B50400DFF8340758
:10C5A000046007211120FFF79BFF10BD80B55FF4E9
:10C5B0008030DFF824170860DFF8201708601120AA
:10C5C000FFF782FF1120FFF75BFF0120DFF8101754
:10C5D00008602F20FFF79CFF0120DFF80817087084
:10C5E00001BD80B51120FFF757FF5FF48030DFF801
:10C5F000F8160860DFF8F41608600120DFF8F0167E
:10C6000008602F20FFF784FF0120DFF8E81608609C
:10C610000020DFF8E41608602F20FFF779FF0020E4
:10C62000DFF8C016087001BDDFF8D006006870475B
:10C63000401A20F07F407047DFF8C416086070474A
:10C6400010B4DFF8C0261168002901D1106023E082
:10C65000116809680368994209D311680B68016879
:10C660005B1A11680B601168C161106014E0046806
:10C6700013681168002907D00A68A24204D20A6828
:10C68000A41A0B00C969F5E7002902D00A68121B39
:10C690000A600460C161D86110BC70472DE9F041A7
:10C6A0000500DFF86086D8F80060D8F800703C001C
:10C6B000002C04D0AC4202D02700E469F8E7002C3B
:10C6C00001D100202AE0A74217D1D8F80000C069A4
:10C6D000C8F80000D8F8000000280ED10120DFF8CB
:10C6E000141608600020DFF8101608600120DFF83B
:10C6F000181608702F20FFF70BFF2168E069F8611A
:10C70000F869002802D002688A180260D8F8002070
:10C71000964201D0012000E00020C0B2BDE8F081C7
:10C7200080B51120FFF7C4FE01BD80B51420FFF7CE
:10C73000BFFE01BD10B50400A0696169884710BD46
:10C74000F8B5DFF8C0452068002834D00027FFF78F
:10C750006BFFDFF8A4150968FFF76AFF060024687D
:10C76000002C11D0206886420ED32068361A20682B
:10C77000C7192500E469287C0028F1D0002028741E
:10C780002800FFF7D7FFEBE7DFF88005DFF880151B
:10C7900009780278914207D10178491C017001782B
:10C7A000022901D100210170DFF86815007841F8F5
:10C7B0002070FFF7BAFFF1BD0100DFF854050278E1
:10C7C000DFF848351B789A4219D00278521C027063
:10C7D0000278022A01D100220270DFF838250078A1
:10C7E00052F820000860DFF8102513680868C318A5
:10C7F0001360106820F07F401060012002E00020EC
:10C80000086000207047F0B403000024DFF8F464EF
:10C81000306800281DD035682868834203D2286814
:10C82000C01A286015E028681B1A2868041900201F
:10C8300028603768E8693060E8680028E6D060184A
:10C8400020F07F406860E868A8601068E8611760C1
:10C85000DCE7F0BC70472DE9F84304000025DFF861
:10C86000A4643768002C06D1DFF8AC040178407866
:10C87000814200F09180002C04D0A146D9F81C0020
:10C88000040050E0DFF890140A781820424301EBCE
:10C89000020010F104080878401C087008788A78B3
:10C8A000904201D100200870D8F8049098F8000058
:10C8B000012819D01DD303280CD01AD2D8F80400AF
:10C8C000FFF7ECFE002801D001200500002089F8C8
:10C8D0001000C7E73068002805D0306800210174D7
:10C8E000C0693060F6E7BDE799F81000002801D173
:10C8F00001E0B7E7B6E7D8F80800C9F80400D8F8AF
:10C900000C00C9F80800D8F81000C9F80C00D8F8D5
:10C910001400C9F81800DFF8F0030078002802D0EE
:10C920000020C9F80400DFF8D023D9F804101068FB
:10C93000091A21F07F41DFF8E40381420AD211682D
:10C94000D9F80400FFF774FED9F808100818C9F8E0
:10C95000000011E0D9F804101068FFF769FED9F85B
:10C960000810884205D2D9F80810081AC9F8000042
:10C9700002E00021C9F800100020C9F804000020DE
:10C98000C9F80800012089F810000020C9F81C002F
:10C990004846FFF755FE65E7EDB2002D02D130683D
:10C9A000B84201D0012000E00020C0B2BDE8F2830F
:10C9B0002DE9F0470400DFF84C13086800283AD04E
:10C9C00008680568FFF730FE0600DFF82C03D0F892
:10C9D000008041463000FFF72BFE0700FF1CDFF808
:10C9E00004030078002801D1FFF7E0FDAF4201D237
:10C9F000280000E0380010EB080828F07F48404687
:10CA0000FFF71AFEFFF710FE814631004046FFF7A0
:10CA10000FFE824631004846FFF70AFEC01C8245E1
:10CA20000BD2FFF701FEFFF707FE2F20FFF770FD87
:10CA3000FFF776FE01E0FFF7D4FDBDE8F087FEB515
:10CA4000002000900024AC480568AE48066801A8A4
:10CA5000FFF7B2FE07003800C0B2002806D06A46D1
:10CA600029000198FFF7CFFE012004000098FFF78E
:10CA7000F2FE002801D0012004002000C0B20028EE
:10CA800002D03000FFF794FF00209F490870F7BDE7
:10CA9000A1494870704710B401009F4B5A78521C4E
:10CAA00010009C78C0B2A04201D10020020010000A
:10CAB0001C78C0B2A04201D1002006E00A705C7868
:10CAC0001820444303EB0400001D10BC70472DE9FF
:10CAD000F84306000F0090469946002400208DF888
:10CAE0000000684601F07CF90DF10100FFF7D3FF6B
:10CAF0000500002D02D1042004000EE00120287062
:10CB00006E60FFF791FDA860EF60C5F81080C5F872
:10CB100014909DF80100FFF7BBFF9DF8000001F0A5
:10CB200065F9002C01D1FFF700FE2000BDE8F2837B
:10CB3000F8B506000F00002500208DF800006846BB
:10CB400001F04EF90DF10100FFF7A5FF0400002CE4
:10CB500002D10420050005E0277066609DF8010001
:10CB6000FFF796FF9DF8000001F040F9002D01D17C
:10CB7000FFF7DBFD2800F2BD80B5002068490860A2
:10CB80000020684908600020674908600020674964
:10CB90000860002066490860002066490860FFF7C9
:10CBA000CFFD01BD80B5FFF74AFF01BD80B5FFF79E
:10CBB00018FD594800210170002141700B2181703E
:10CBC00000205049086000205149087000204F495A
:10CBD00008701420FFF778FC07211420FFF780FC71
:10CBE0001420FFF74DFC0020FFF7D6FCFFF71CFDDB
:10CBF00041490860002002BD10B403004648807817
:10CC0000002801D1082014E01000002801D10720DD
:10CC10000FE0002B01D107200BE01868007C0028F2
:10CC200001D0082005E01C68002020746174626156
:10CC3000002010BC70472DE9F04104000D001600E3
:10CC4000270035488078002801D1082019E0002C01
:10CC500001D1082015E0052D01D2072011E07869E7
:10CC6000002801D108200CE0787C012801D1A846D9
:10CC700001E05FF000083300424629003800FFF76A
:10CC800026FFBDE8F08138B50400250022488078F1
:10CC9000002801D108200CE0002C02D0686900288F
:10CCA00001D1082005E00020287402212800FFF7A8
:10CCB0003FFF32BD00E100E080E100E000E200E083
:10CCC00080E200E018ED00E000E400E00024F40061
:10CCD000841B002008150140441301400413014047
:10CCE0000010014020240020481301400813014097
:10CCF0000410014008100140B42300200415014035
:10CD000040150140B0230020212400201F240020D2
:10CD10001E2400204C230020AC1B0020FFFF7F00BE
:10CD20004011014044110140481101404C110140A3
:10CD300000110140041101400121294A0300DBB226
:10CD4000D1507047264900B20858002801D0012070
:10CD500000E00020C0B2704781B0214900220300EA
:10CD60001BB2CA50020012B289580091009901B05A
:10CD7000704701201B49086070471B4A10601B4A1E
:10CD8000116070470100C9B2194A11607047194813
:10CD90000021018000214180002017490870704760
:10CDA0000100154A1078002808D0124803880B802B
:10CDB0004088488000201070012000E0002070476B
:10CDC00010B50C4C0321002000F018F8208004213D
:10CDD000002000F013F8608001200749087010BDA2
:10CDE00000700040007500402C7600403076004016
:10CDF000F07500409C2300201C2400203EB5040058
:10CE00000D0002208DF8040003208DF802000020A0
:10CE10008DF805008DF807508DF8085000208DF82A
:10CE2000030000208DF8000000208DF80100FFF7BE
:10CE3000A0FF0120FFF7A6FF69462000C0B200F066
:10CE4000EEFF00F002F880B23EBD80B501216846D9
:10CE5000FFF793FF0020FFF76FFF4FF48070FFF79D
:10CE600071FF0028F9D04FF48070FFF775FF0420A0
:10CE7000FFF762FF4FF48270FFF764FF0028F9D0DC
:10CE80004FF48270FFF768FF0820FFF755FF4FF45B
:10CE90008A70FFF757FF0028F9D04FF48A70FFF728
:10CEA0005BFFBDF9000002BD416802685268914213
:10CEB00002D1002181600DE0416809684268526832
:10CEC000914203D041680968816003E041680831FC
:10CED0004160E9E7704738B504000D002560286817
:10CEE00060602000FFF7E0FF31BD10B50400A068CE
:10CEF00000280FD0A168206880684118A160A06850
:10CF000061684968884205D1606808306060200027
:10CF1000FFF7CAFF10BDFEE701005FF0A0407047B9
:10CF20002DE9F14181B00E0017009846089C099D3B
:10CF300001A8FFF7F1FF3100C9B23A00D2B251EABD
:10CF400042014246D2B251EA82012200D2B251EAF3
:10CF500002212A00D2B251EA0241019A00EB820278
:10CF6000C2F80017BDE8F3811CB504000020019051
:10CF7000002000900023012201212000FFF7D0FFB4
:10CF800013BD11B581B001A8FFF7C6FF0400012150
:10CF900001988140200000F050F813BD11B581B018
:10CFA00001A8FFF7B9FF040001210198814020008A
:10CFB00000F046F813BD01B56846FFF7ADFFD0F8A5
:10CFC00004250123009913FA01F19143C0F80815D3
:10CFD00000998B401340C0F80C3501BD38B50500F1
:10CFE0000C00002C03D12800FFF7D8FF02E0280036
:10CFF000FFF7C7FF31BD11B581B001A8FFF78CFF66
:10D000000400200000F013F80199C84010F001005E
:10D0100016BD11B581B001A8FFF77EFF0400200006
:10D0200000F008F80199C84010F0010016BDD0F8D2
:10D0300010057047D0F804057047C0F80815704710
:10D04000C0F80C15704710B504002F48005DFFF7BD
:10D05000E0FF002801D0012000E0002090F0010056
:10D06000C0B210BD10B5040000212748005DFFF7D5
:10D07000B5FF10BD10B50024032C04D22000C0461B
:10D08000C046641CF8E710BD10B50024032C04D280
:10D090002000FFF7E7FF641CF8E710BD10B504009F
:10D0A0001948005DFFF787FF10BD10B50024032C61
:10D0B00005D21548005DFFF757FF641CF7E7FFF73F
:10D0C000D9FF10BD10B504001048005DFFF793FFB5
:10D0D000002801D0012000E0002090F00100C0B243
:10D0E00010BD01005FF0FF300022022A07D2074B7B
:10D0F0009B5C8B4201D1100001E0521CF5E77047A8
:10D100000249085C70470000442C0200E2940100D0
:10D11000BBBBE1B1B2F5803F80F07E80022A1ED910
:10D120008C46B1FBF2F102FB11C31B0443EA10432E
:10D13000B3FBF2FC02FB1C3380B240EA0343B3FBB7
:10D14000F2F002FB103240EA0C4000237047022A42
:10D1500005D98446B0FBF2F002FB10C270474AB119
:10D1600005D100F0010249085FEA30007047002253
:10D170000023704700F086BE0B0002000021002053
:10D180007047904271EB030CF6D3B3F5803F2FD27A
:10D19000F0B5B3FA83F7B1FA81F4A7F10F0E3D1B96
:10D1A0005340CEF1200602FA0EF2F3415340B5F19E
:10D1B0000F0746D80F3C2C444140C4F12006A04044
:10D1C000F1414140B1FBF3F603FB1611A2FB06450A
:10D1D000001BA94102D2761E8018594180EA010243
:10D1E00021FA0EF362FA0EF200215A403046F0BDE9
:10D1F00030B4B1FBF3FC03FB1C11A2FB0C45001B7C
:10D20000A94103D2ACF1010C8018594130BC02464F
:10D210000B46604600217047B2F1807F65D3F0B5C0
:10D22000B2FA82F7B1FA81F4C7F10F063D1B22FA78
:10D2300006F307F1110EF24120355A40B5F10F0700
:10D24000B8D94140C4F12006A040F1414140B1FBB2
:10D25000F3FC03FB1C11A2FB0C45001BA94103D2EC
:10D26000BCF1010C801859410F2F12D30F3FC90395
:10D2700041EA5041B1FBF3F603FB1611A2FB064550
:10D28000D4EBC030A94102D2761E8018594146EA3B
:10D29000CC3C07B34140C7F12006B840F1414140C2
:10D2A000B1FBF3F603FB1611A2FB0645001BA941D7
:10D2B00002D2761E8018594180EA010221FA0EF34B
:10D2C000C7F1200462FA0EF20CFA07F05A402CFA69
:10D2D00004F13043F0BD80EA010221FA0EF300218F
:10D2E00062FA0EF260465A40F0BD8C46B1FBF2F194
:10D2F00002FB11C31B0243EA1063B3FBF2FC02FB07
:10D300001C331B024CEA002043EA1063B3FBF2FC1F
:10D3100002FB1C331B024CEA002043EA1063B3FB00
:10D32000F2FC02FB1C331B024CEA002043EA1063B0
:10D33000B3FBF2FC02FB1C324CEA002000237047D6
:10D340002DE9F8430400002528006B490978C0B294
:10D35000884242D2694800682900C9B200EBC10680
:10D360005FF0010996F9007019FA07F7644801683F
:10D370000F4230D00168B9430160307800F0B2FF4D
:10D3800080466048016896F9000019FA00F919EA28
:10D3900001094146C9B296F90000814089451AD178
:10D3A0007078012801D1012000E000204146C9B277
:10D3B000C0B290EA010F02D15FF0010901E05FF015
:10D3C00000095FFA89F97068002804D04946C9B29B
:10D3D0003078726890476D1CB6E7BDE8F1832DE99F
:10D3E000F84305000E000127AF40DFF81C81D8F894
:10D3F0000000FFF748FC0400002C26D1DFF8009164
:10D40000D9F8000038421BD1280000F06BFF00283B
:10D4100004D03C4801683943016003E039480168A1
:10D42000B9430160D9F800003843C9F80000002270
:10D4300036480168D8F80000FFF7FDFB040004E05F
:10D44000D9F80000B843C9F80000BDE8F1832DE920
:10D45000FC4105000E001700052F01D2072037E020
:10D4600000F096FE002806D100F062FE0400002CB9
:10D4700001D020002CE0214805601F480670234899
:10D48000076000201F49086000201D490860300027
:10D49000461EC0B2002816D03000C0B205EBC0084E
:10D4A0001B480068009098F802008DF80100194AA6
:10D4B000694698F8000000F075FE0400002C01D0C9
:10D4C000200005E0E3E7144A00210F48FFF794FB32
:10D4D000BDE8F68110B5002407480078844208D2E0
:10D4E00001210648006810F8340000F09EFE641C1C
:10D4F000F2E7002010BD00001D240020A023002022
:10D50000AC230020A82300203C2C0200A4230020F0
:10D51000402C0200DFD3010041D3010001220B00A7
:10D52000DBB2C250704781B000220B001BB2C25068
:10D530000A0012B282580092009A01B0704709B2F4
:10D540004058002801D0012000E00020C0B2704700
:10D55000C0F804137047C0F8081370470621C0F8DC
:10D5600000157047C0F80815C0F80C257047C0F8C2
:10D57000241570470100D1F8C404C1F8C4047047F1
:10D580000A00D2B2C0F888257047C0F844151300CD
:10D59000DBB2C0F848357047C0F834151300DBB271
:10D5A000C0F838357047C0F800127047D0F84C0505
:10D5B0007047D0F83C0570470121C0F850157047FE
:10D5C0000021C0F8501570470121C0F84015704780
:10D5D0000021C0F84015704701000800000B40B260
:10D5E000704710F06040B0F1005F01D1012000E011
:10D5F0000020C0B2704701005FF0A040704711B535
:10D6000081B001A8FFF7F7FF0400012101988140D4
:10D61000200000F01FF813BD11B581B001A8FFF77D
:10D62000EAFF0400012101988140200000F015F874
:10D6300013BD11B581B001A8FFF7DDFF0400200084
:10D6400000F005F80199C84010F0010016BDD0F8AF
:10D6500010057047C0F808157047C0F80C157047E2
:10D6600000000000DFF8BC1600283ED0DFF8B82626
:10D67000126800BF00BF00BF00BF00BF00BF00BFF7
:10D6800000BF8A422FD000BF00BF00BF00BF00BF55
:10D6900000BF00BF00BF00BF00BF00BF00BF00BF92
:10D6A00000BF00BF00BF00BF00BF00BF00BF00BF82
:10D6B00000BF00BF00BF00BF00BF00BF00BF00BF72
:10D6C00000BF00BF00BF00BF00BF00BF00BF00BF62
:10D6D00000BF00BF00BF00BF00BF00BF00BF00BF52
:10D6E00000BF00BF00BF401EC3D170470100032030
:10D6F0008A0702D548F2012210004A0702D548F2F3
:10D7000002221000704738B50500DFF820464FF4BC
:10D71000C060296844F82100696844F8210028683D
:10D72000FFF76DFF6868FFF76AFF40F20160296844
:10D7300044F82100696844F821000420FFF792FFB3
:10D740000024092C15DA6868FFF773FF002802D05F
:10D75000002C17D00DE02868FFF75EFF0420FFF7CC
:10D7600081FF2868FFF74BFF0420FFF77BFF641C55
:10D77000E7E76868FFF750FF0420FFF773FF68686A
:10D78000FFF73DFF31BD2DE9F84304000D00160001
:10D790001F00DFF89C1522792820424301EB020884
:10D7A00098F82200002801D0082039E0C8F800606D
:10D7B000C8F804700020C8F80800002088F8250088
:10D7C000002088F82400A87B88F82700687B0028C0
:10D7D00002D02800FFF797FFDFF850054FF4C06133
:10D7E0002A6840F822106A6840F82210D4F80090A5
:10D7F0006A6829684846FFF7B5FEA9684846FFF7FA
:10D80000B6FED8F80000002806D02068FFF7E4FE36
:10D81000297B40B200F0A8FD012088F822000020FA
:10D82000BDE8F28370B50400DFF8041522792820E2
:10D83000424301EB020526683000FFF78FFE02200D
:10D8400085F8220070BD38B504000D00E80703D547
:10D850002000FFF7B1FE02E02000FFF7B1FEA807AD
:10D8600003D52000FFF7B0FE02E02000FFF7B0FE76
:10D8700031BD2DE9F84F05000E00170098465FF006
:10D8800000095FF0080A4FF48274A3467868FFF736
:10D89000A8FE002801D110201AE15FF0FF3130000E
:10D8A000FFF759FE95F82400002805D0A96830003C
:10D8B000FFF74EFE11200BE118F0140F01D00020ED
:10D8C00000E00120002801D0012000E0002085F8C0
:10D8D000240015F10C0097E80E0080E80E00404689
:10D8E000000910F0010085F8250079783000FFF775
:10D8F00047FE4FF482713000FFF715FE4FF492712E
:10D900003000FFF710FE41463000FFF79CFF3878EB
:10D9100000285DD0022841D0C0F08080032840F06C
:10D920009180B868FFF75DFE002801D11020CFE09C
:10D930004FF480713000FFF736FEBA787968300016
:10D94000FFF723FE4FF4A8713000FFF7ECFD4FF412
:10D95000B0713000FFF7E7FD4FF4A4713000FFF71E
:10D96000E2FD20213000FFF7D9FD08213000FFF74C
:10D97000D5FD4FF4A8713000FFF7E1FD0028F8D085
:10D980004FF4A8713000FFF7CEFDFA78B968300087
:10D99000FFF7FBFDDFF89C03A86055E0BA787968D3
:10D9A0003000FFF7F2FDB868FFF71BFE002801D139
:10D9B00010208DE0FA78B9683000FFF7EDFD4FF4E4
:10D9C00084513000FFF7EFFD40F20220A8603BE0F9
:10D9D000BA7879683000FFF7D8FD5FEA886010D523
:10D9E0004FF480713000FFF7DEFDDFF84803A860D8
:10D9F0004FF4A4713000FFF796FD4FF4A4708346F6
:10DA000007E04FF400713000FFF7CDFD40F2022037
:10DA1000A86020213000FFF781FD15E0BA78796811
:10DA20003000FFF7B9FD4FF480513000FFF7BBFD28
:10DA300040F20220A8600020824620213000FFF73B
:10DA40006DFD01E0072081465FEA087007D4387851
:10DA5000032804D05146C9B23000FFF75FFD2868A3
:10DA600000280AD05FEA487002D54FF40070A86021
:10DA7000A9683000FFF76CFD29E0594609B2300073
:10DA8000FFF75DFD002815D14FF492713000FFF7CC
:10DA900056FD0028F1D04FF492713000FFF743FD9E
:10DAA00020213000FFF73AFD14213000FFF736FD4A
:10DAB000A346E2E73000FFF75DFD0400002085F893
:10DAC0002400002C03D02000FFF710FE81464846BA
:10DAD000BDE8F28F2DE9F04104000D00160000278B
